{
  "_format": "hh-sol-artifact-1",
  "contractName": "Murmes",
  "sourceName": "contracts/Murmes.sol",
  "abi": [
    {
      "inputs": [
        {
          "internalType": "address",
          "name": "owner",
          "type": "address"
        }
      ],
      "stateMutability": "nonpayable",
      "type": "constructor"
    },
    {
      "anonymous": false,
      "inputs": [
        {
          "indexed": false,
          "internalType": "uint256",
          "name": "taskId",
          "type": "uint256"
        },
        {
          "indexed": false,
          "internalType": "uint256",
          "name": "amount",
          "type": "uint256"
        },
        {
          "indexed": false,
          "internalType": "uint256",
          "name": "deadline",
          "type": "uint256"
        }
      ],
      "name": "ApplicationRecover",
      "type": "event"
    },
    {
      "anonymous": false,
      "inputs": [
        {
          "indexed": false,
          "internalType": "uint256",
          "name": "taskId",
          "type": "uint256"
        },
        {
          "indexed": false,
          "internalType": "uint256",
          "name": "amount",
          "type": "uint256"
        }
      ],
      "name": "ApplicationReset",
      "type": "event"
    },
    {
      "anonymous": false,
      "inputs": [
        {
          "indexed": false,
          "internalType": "address",
          "name": "applicant",
          "type": "address"
        },
        {
          "indexed": false,
          "internalType": "address",
          "name": "platform",
          "type": "address"
        },
        {
          "indexed": false,
          "internalType": "uint256",
          "name": "videoId",
          "type": "uint256"
        },
        {
          "indexed": false,
          "internalType": "uint8",
          "name": "strategy",
          "type": "uint8"
        },
        {
          "indexed": false,
          "internalType": "uint256",
          "name": "amount",
          "type": "uint256"
        },
        {
          "indexed": false,
          "internalType": "uint16",
          "name": "language",
          "type": "uint16"
        },
        {
          "indexed": false,
          "internalType": "uint256",
          "name": "deadline",
          "type": "uint256"
        },
        {
          "indexed": false,
          "internalType": "uint256",
          "name": "taskId",
          "type": "uint256"
        },
        {
          "indexed": false,
          "internalType": "string",
          "name": "src",
          "type": "string"
        }
      ],
      "name": "ApplicationSubmit",
      "type": "event"
    },
    {
      "anonymous": false,
      "inputs": [
        {
          "indexed": false,
          "internalType": "uint256",
          "name": "taskId",
          "type": "uint256"
        },
        {
          "indexed": false,
          "internalType": "uint256",
          "name": "newAmount",
          "type": "uint256"
        },
        {
          "indexed": false,
          "internalType": "uint256",
          "name": "newDeadline",
          "type": "uint256"
        }
      ],
      "name": "ApplicationUpdate",
      "type": "event"
    },
    {
      "anonymous": false,
      "inputs": [
        {
          "indexed": true,
          "internalType": "address[]",
          "name": "opeators",
          "type": "address[]"
        },
        {
          "indexed": true,
          "internalType": "bool",
          "name": "state",
          "type": "bool"
        }
      ],
      "name": "OpeatorsStateChange",
      "type": "event"
    },
    {
      "anonymous": false,
      "inputs": [
        {
          "indexed": true,
          "internalType": "address",
          "name": "previousOwner",
          "type": "address"
        },
        {
          "indexed": true,
          "internalType": "address",
          "name": "newOwner",
          "type": "address"
        }
      ],
      "name": "OwnershipTransferred",
      "type": "event"
    },
    {
      "anonymous": false,
      "inputs": [
        {
          "indexed": false,
          "internalType": "string",
          "name": "language",
          "type": "string"
        },
        {
          "indexed": false,
          "internalType": "uint16",
          "name": "id",
          "type": "uint16"
        }
      ],
      "name": "RegisterLanguage",
      "type": "event"
    },
    {
      "anonymous": false,
      "inputs": [
        {
          "indexed": false,
          "internalType": "uint256",
          "name": "subtitleId",
          "type": "uint256"
        },
        {
          "indexed": false,
          "internalType": "address",
          "name": "evaluator",
          "type": "address"
        },
        {
          "indexed": false,
          "internalType": "uint8",
          "name": "attitude",
          "type": "uint8"
        }
      ],
      "name": "SubitlteGetEvaluation",
      "type": "event"
    },
    {
      "anonymous": false,
      "inputs": [
        {
          "indexed": false,
          "internalType": "uint256",
          "name": "subtitleId",
          "type": "uint256"
        },
        {
          "indexed": false,
          "internalType": "uint8",
          "name": "state",
          "type": "uint8"
        },
        {
          "indexed": false,
          "internalType": "uint256",
          "name": "taskId",
          "type": "uint256"
        }
      ],
      "name": "SubtilteStateChange",
      "type": "event"
    },
    {
      "anonymous": false,
      "inputs": [
        {
          "indexed": false,
          "internalType": "address",
          "name": "platform",
          "type": "address"
        },
        {
          "indexed": false,
          "internalType": "uint256[]",
          "name": "subtitleId",
          "type": "uint256[]"
        },
        {
          "indexed": false,
          "internalType": "uint256[]",
          "name": "counts",
          "type": "uint256[]"
        }
      ],
      "name": "SubtitleCountsUpdate",
      "type": "event"
    },
    {
      "anonymous": false,
      "inputs": [
        {
          "indexed": false,
          "internalType": "address",
          "name": "newAccess",
          "type": "address"
        }
      ],
      "name": "SystemSetAccess",
      "type": "event"
    },
    {
      "anonymous": false,
      "inputs": [
        {
          "indexed": false,
          "internalType": "address",
          "name": "newAudit",
          "type": "address"
        }
      ],
      "name": "SystemSetAudit",
      "type": "event"
    },
    {
      "anonymous": false,
      "inputs": [
        {
          "indexed": false,
          "internalType": "address",
          "name": "newDetection",
          "type": "address"
        }
      ],
      "name": "SystemSetDetection",
      "type": "event"
    },
    {
      "anonymous": false,
      "inputs": [
        {
          "indexed": false,
          "internalType": "uint256",
          "name": "time",
          "type": "uint256"
        }
      ],
      "name": "SystemSetLockUpTime",
      "type": "event"
    },
    {
      "anonymous": false,
      "inputs": [
        {
          "indexed": false,
          "internalType": "address",
          "name": "platform",
          "type": "address"
        }
      ],
      "name": "SystemSetPlatforms",
      "type": "event"
    },
    {
      "anonymous": false,
      "inputs": [
        {
          "indexed": false,
          "internalType": "uint8",
          "name": "strategyId",
          "type": "uint8"
        },
        {
          "indexed": false,
          "internalType": "address",
          "name": "strategy",
          "type": "address"
        },
        {
          "indexed": false,
          "internalType": "string",
          "name": "notes",
          "type": "string"
        }
      ],
      "name": "SystemSetSettlement",
      "type": "event"
    },
    {
      "anonymous": false,
      "inputs": [
        {
          "indexed": false,
          "internalType": "address",
          "name": "token",
          "type": "address"
        }
      ],
      "name": "SystemSetSubtitleToken",
      "type": "event"
    },
    {
      "anonymous": false,
      "inputs": [
        {
          "indexed": false,
          "internalType": "address",
          "name": "vault",
          "type": "address"
        }
      ],
      "name": "SystemSetVault",
      "type": "event"
    },
    {
      "anonymous": false,
      "inputs": [
        {
          "indexed": false,
          "internalType": "address",
          "name": "token",
          "type": "address"
        }
      ],
      "name": "SystemSetVideoToken",
      "type": "event"
    },
    {
      "anonymous": false,
      "inputs": [
        {
          "indexed": false,
          "internalType": "address",
          "name": "token",
          "type": "address"
        }
      ],
      "name": "SystemSetZimuToken",
      "type": "event"
    },
    {
      "anonymous": false,
      "inputs": [
        {
          "indexed": false,
          "internalType": "address",
          "name": "usr",
          "type": "address"
        },
        {
          "indexed": false,
          "internalType": "int256",
          "name": "reputationSpread",
          "type": "int256"
        },
        {
          "indexed": false,
          "internalType": "int256",
          "name": "tokenSpread",
          "type": "int256"
        }
      ],
      "name": "UserInfoUpdate",
      "type": "event"
    },
    {
      "anonymous": false,
      "inputs": [
        {
          "indexed": false,
          "internalType": "address",
          "name": "user",
          "type": "address"
        },
        {
          "indexed": false,
          "internalType": "uint256",
          "name": "reputation",
          "type": "uint256"
        },
        {
          "indexed": false,
          "internalType": "int256",
          "name": "deposit",
          "type": "int256"
        }
      ],
      "name": "UserJoin",
      "type": "event"
    },
    {
      "anonymous": false,
      "inputs": [
        {
          "indexed": false,
          "internalType": "address",
          "name": "user",
          "type": "address"
        },
        {
          "indexed": false,
          "internalType": "address",
          "name": "platform",
          "type": "address"
        },
        {
          "indexed": false,
          "internalType": "uint256",
          "name": "day",
          "type": "uint256"
        },
        {
          "indexed": false,
          "internalType": "int256",
          "name": "reward",
          "type": "int256"
        }
      ],
      "name": "UserLockRewardUpdate",
      "type": "event"
    },
    {
      "anonymous": false,
      "inputs": [
        {
          "indexed": false,
          "internalType": "address",
          "name": "user",
          "type": "address"
        },
        {
          "indexed": false,
          "internalType": "address",
          "name": "platform",
          "type": "address"
        },
        {
          "indexed": false,
          "internalType": "uint256[]",
          "name": "day",
          "type": "uint256[]"
        },
        {
          "indexed": false,
          "internalType": "uint256",
          "name": "all",
          "type": "uint256"
        }
      ],
      "name": "UserWithdraw",
      "type": "event"
    },
    {
      "anonymous": false,
      "inputs": [
        {
          "indexed": false,
          "internalType": "address",
          "name": "user",
          "type": "address"
        },
        {
          "indexed": false,
          "internalType": "uint256",
          "name": "amount",
          "type": "uint256"
        },
        {
          "indexed": false,
          "internalType": "uint256",
          "name": "balance",
          "type": "uint256"
        }
      ],
      "name": "UserWithdrawDespoit",
      "type": "event"
    },
    {
      "anonymous": false,
      "inputs": [
        {
          "indexed": false,
          "internalType": "uint256",
          "name": "videoId",
          "type": "uint256"
        },
        {
          "indexed": false,
          "internalType": "uint256",
          "name": "unsettled",
          "type": "uint256"
        },
        {
          "indexed": false,
          "internalType": "uint256",
          "name": "surplus",
          "type": "uint256"
        }
      ],
      "name": "VideoPreExtract",
      "type": "event"
    },
    {
      "inputs": [],
      "name": "accessStrategy",
      "outputs": [
        {
          "internalType": "contract IAccessStrategy",
          "name": "",
          "type": "address"
        }
      ],
      "stateMutability": "view",
      "type": "function"
    },
    {
      "inputs": [],
      "name": "auditStrategy",
      "outputs": [
        {
          "internalType": "contract IAuditStrategy",
          "name": "",
          "type": "address"
        }
      ],
      "stateMutability": "view",
      "type": "function"
    },
    {
      "inputs": [],
      "name": "deposit",
      "outputs": [
        {
          "internalType": "uint256",
          "name": "",
          "type": "uint256"
        }
      ],
      "stateMutability": "view",
      "type": "function"
    },
    {
      "inputs": [],
      "name": "detectionStrategy",
      "outputs": [
        {
          "internalType": "contract IDetectionStrategy",
          "name": "",
          "type": "address"
        }
      ],
      "stateMutability": "view",
      "type": "function"
    },
    {
      "inputs": [
        {
          "internalType": "uint256",
          "name": "subtitleId",
          "type": "uint256"
        },
        {
          "internalType": "uint8",
          "name": "attitude",
          "type": "uint8"
        }
      ],
      "name": "evaluateSubtitle",
      "outputs": [],
      "stateMutability": "nonpayable",
      "type": "function"
    },
    {
      "inputs": [],
      "name": "fee",
      "outputs": [
        {
          "internalType": "uint16",
          "name": "",
          "type": "uint16"
        }
      ],
      "stateMutability": "view",
      "type": "function"
    },
    {
      "inputs": [
        {
          "internalType": "string",
          "name": "language",
          "type": "string"
        }
      ],
      "name": "getLanguageIdByNote",
      "outputs": [
        {
          "internalType": "uint16",
          "name": "",
          "type": "uint16"
        }
      ],
      "stateMutability": "view",
      "type": "function"
    },
    {
      "inputs": [
        {
          "internalType": "uint16",
          "name": "languageId",
          "type": "uint16"
        }
      ],
      "name": "getLanguageNoteById",
      "outputs": [
        {
          "internalType": "string",
          "name": "",
          "type": "string"
        }
      ],
      "stateMutability": "view",
      "type": "function"
    },
    {
      "inputs": [
        {
          "internalType": "uint8",
          "name": "strategyId",
          "type": "uint8"
        }
      ],
      "name": "getSettlementStrategyBaseInfo",
      "outputs": [
        {
          "internalType": "address",
          "name": "",
          "type": "address"
        },
        {
          "internalType": "string",
          "name": "",
          "type": "string"
        }
      ],
      "stateMutability": "view",
      "type": "function"
    },
    {
      "inputs": [
        {
          "internalType": "uint256",
          "name": "subtitleId",
          "type": "uint256"
        }
      ],
      "name": "getSubtitleAuditInfo",
      "outputs": [
        {
          "internalType": "uint256",
          "name": "",
          "type": "uint256"
        },
        {
          "internalType": "uint256",
          "name": "",
          "type": "uint256"
        },
        {
          "internalType": "uint256",
          "name": "",
          "type": "uint256"
        },
        {
          "internalType": "uint256",
          "name": "",
          "type": "uint256"
        },
        {
          "internalType": "uint256",
          "name": "",
          "type": "uint256"
        }
      ],
      "stateMutability": "view",
      "type": "function"
    },
    {
      "inputs": [
        {
          "internalType": "uint256",
          "name": "subtitleId",
          "type": "uint256"
        }
      ],
      "name": "getSubtitleBaseInfo",
      "outputs": [
        {
          "internalType": "uint8",
          "name": "",
          "type": "uint8"
        },
        {
          "internalType": "uint256",
          "name": "",
          "type": "uint256"
        },
        {
          "internalType": "uint256",
          "name": "",
          "type": "uint256"
        },
        {
          "internalType": "address[]",
          "name": "",
          "type": "address[]"
        },
        {
          "internalType": "address[]",
          "name": "",
          "type": "address[]"
        }
      ],
      "stateMutability": "view",
      "type": "function"
    },
    {
      "inputs": [
        {
          "internalType": "address",
          "name": "usr",
          "type": "address"
        }
      ],
      "name": "getUserBaseInfo",
      "outputs": [
        {
          "internalType": "uint256",
          "name": "",
          "type": "uint256"
        },
        {
          "internalType": "int256",
          "name": "",
          "type": "int256"
        }
      ],
      "stateMutability": "view",
      "type": "function"
    },
    {
      "inputs": [
        {
          "internalType": "address",
          "name": "usr",
          "type": "address"
        },
        {
          "internalType": "address",
          "name": "platform",
          "type": "address"
        },
        {
          "internalType": "uint256",
          "name": "day",
          "type": "uint256"
        }
      ],
      "name": "getUserLockReward",
      "outputs": [
        {
          "internalType": "uint256",
          "name": "",
          "type": "uint256"
        }
      ],
      "stateMutability": "view",
      "type": "function"
    },
    {
      "inputs": [
        {
          "internalType": "address",
          "name": "operator",
          "type": "address"
        }
      ],
      "name": "isOperator",
      "outputs": [
        {
          "internalType": "bool",
          "name": "",
          "type": "bool"
        }
      ],
      "stateMutability": "view",
      "type": "function"
    },
    {
      "inputs": [],
      "name": "lockUpTime",
      "outputs": [
        {
          "internalType": "uint256",
          "name": "",
          "type": "uint256"
        }
      ],
      "stateMutability": "view",
      "type": "function"
    },
    {
      "inputs": [],
      "name": "owner",
      "outputs": [
        {
          "internalType": "address",
          "name": "",
          "type": "address"
        }
      ],
      "stateMutability": "view",
      "type": "function"
    },
    {
      "inputs": [],
      "name": "platforms",
      "outputs": [
        {
          "internalType": "address",
          "name": "",
          "type": "address"
        }
      ],
      "stateMutability": "view",
      "type": "function"
    },
    {
      "inputs": [
        {
          "internalType": "address",
          "name": "platform",
          "type": "address"
        },
        {
          "internalType": "address",
          "name": "to",
          "type": "address"
        },
        {
          "internalType": "uint256",
          "name": "amount",
          "type": "uint256"
        }
      ],
      "name": "preDivide",
      "outputs": [],
      "stateMutability": "nonpayable",
      "type": "function"
    },
    {
      "inputs": [
        {
          "internalType": "address",
          "name": "platform",
          "type": "address"
        },
        {
          "internalType": "address[]",
          "name": "to",
          "type": "address[]"
        },
        {
          "internalType": "uint256",
          "name": "amount",
          "type": "uint256"
        }
      ],
      "name": "preDivideBatch",
      "outputs": [],
      "stateMutability": "nonpayable",
      "type": "function"
    },
    {
      "inputs": [
        {
          "internalType": "uint256",
          "name": "taskId",
          "type": "uint256"
        }
      ],
      "name": "preExtract0",
      "outputs": [],
      "stateMutability": "nonpayable",
      "type": "function"
    },
    {
      "inputs": [
        {
          "internalType": "uint256",
          "name": "videoId",
          "type": "uint256"
        }
      ],
      "name": "preExtractOther",
      "outputs": [
        {
          "internalType": "uint256",
          "name": "",
          "type": "uint256"
        }
      ],
      "stateMutability": "nonpayable",
      "type": "function"
    },
    {
      "inputs": [
        {
          "internalType": "uint256",
          "name": "taskId",
          "type": "uint256"
        },
        {
          "internalType": "uint256",
          "name": "amount",
          "type": "uint256"
        },
        {
          "internalType": "uint256",
          "name": "deadline",
          "type": "uint256"
        }
      ],
      "name": "recover",
      "outputs": [],
      "stateMutability": "nonpayable",
      "type": "function"
    },
    {
      "inputs": [
        {
          "internalType": "string[]",
          "name": "language",
          "type": "string[]"
        }
      ],
      "name": "registerLanguage",
      "outputs": [
        {
          "internalType": "uint16",
          "name": "",
          "type": "uint16"
        }
      ],
      "stateMutability": "nonpayable",
      "type": "function"
    },
    {
      "inputs": [
        {
          "internalType": "uint256",
          "name": "taskId",
          "type": "uint256"
        },
        {
          "internalType": "uint256",
          "name": "amount",
          "type": "uint256"
        }
      ],
      "name": "resetApplication",
      "outputs": [],
      "stateMutability": "nonpayable",
      "type": "function"
    },
    {
      "inputs": [
        {
          "internalType": "contract IAccessStrategy",
          "name": "newAccess",
          "type": "address"
        }
      ],
      "name": "setAccessStrategy",
      "outputs": [],
      "stateMutability": "nonpayable",
      "type": "function"
    },
    {
      "inputs": [
        {
          "internalType": "contract IAuditStrategy",
          "name": "newAudit",
          "type": "address"
        }
      ],
      "name": "setAuditStrategy",
      "outputs": [],
      "stateMutability": "nonpayable",
      "type": "function"
    },
    {
      "inputs": [
        {
          "internalType": "uint16",
          "name": "auditorDivide",
          "type": "uint16"
        }
      ],
      "name": "setAuditorDivideRate",
      "outputs": [],
      "stateMutability": "nonpayable",
      "type": "function"
    },
    {
      "inputs": [
        {
          "internalType": "uint8",
          "name": "note",
          "type": "uint8"
        },
        {
          "internalType": "address",
          "name": "addr",
          "type": "address"
        }
      ],
      "name": "setComponentsAddress",
      "outputs": [],
      "stateMutability": "nonpayable",
      "type": "function"
    },
    {
      "inputs": [
        {
          "internalType": "contract IDetectionStrategy",
          "name": "newDetection",
          "type": "address"
        }
      ],
      "name": "setDetectionStrategy",
      "outputs": [],
      "stateMutability": "nonpayable",
      "type": "function"
    },
    {
      "inputs": [
        {
          "internalType": "uint256",
          "name": "time",
          "type": "uint256"
        }
      ],
      "name": "setLockUpTime",
      "outputs": [],
      "stateMutability": "nonpayable",
      "type": "function"
    },
    {
      "inputs": [
        {
          "internalType": "address[]",
          "name": "operators",
          "type": "address[]"
        },
        {
          "internalType": "bool",
          "name": "state",
          "type": "bool"
        }
      ],
      "name": "setOperators",
      "outputs": [],
      "stateMutability": "nonpayable",
      "type": "function"
    },
    {
      "inputs": [
        {
          "internalType": "uint8",
          "name": "strategyId",
          "type": "uint8"
        },
        {
          "internalType": "address",
          "name": "strategy",
          "type": "address"
        },
        {
          "internalType": "string",
          "name": "notes",
          "type": "string"
        }
      ],
      "name": "setSettlementStrategy",
      "outputs": [],
      "stateMutability": "nonpayable",
      "type": "function"
    },
    {
      "inputs": [
        {
          "internalType": "address",
          "name": "platform",
          "type": "address"
        },
        {
          "internalType": "uint256",
          "name": "videoId",
          "type": "uint256"
        },
        {
          "internalType": "uint8",
          "name": "strategy",
          "type": "uint8"
        },
        {
          "internalType": "uint256",
          "name": "amount",
          "type": "uint256"
        },
        {
          "internalType": "uint16",
          "name": "language",
          "type": "uint16"
        },
        {
          "internalType": "uint256",
          "name": "deadline",
          "type": "uint256"
        },
        {
          "internalType": "string",
          "name": "source",
          "type": "string"
        }
      ],
      "name": "submitApplication",
      "outputs": [
        {
          "internalType": "uint256",
          "name": "",
          "type": "uint256"
        }
      ],
      "stateMutability": "nonpayable",
      "type": "function"
    },
    {
      "inputs": [],
      "name": "subtitleToken",
      "outputs": [
        {
          "internalType": "address",
          "name": "",
          "type": "address"
        }
      ],
      "stateMutability": "view",
      "type": "function"
    },
    {
      "inputs": [
        {
          "internalType": "uint256",
          "name": "",
          "type": "uint256"
        }
      ],
      "name": "tasks",
      "outputs": [
        {
          "internalType": "address",
          "name": "applicant",
          "type": "address"
        },
        {
          "internalType": "address",
          "name": "platform",
          "type": "address"
        },
        {
          "internalType": "uint256",
          "name": "videoId",
          "type": "uint256"
        },
        {
          "internalType": "string",
          "name": "source",
          "type": "string"
        },
        {
          "internalType": "uint8",
          "name": "strategy",
          "type": "uint8"
        },
        {
          "internalType": "uint256",
          "name": "amount",
          "type": "uint256"
        },
        {
          "internalType": "uint16",
          "name": "language",
          "type": "uint16"
        },
        {
          "internalType": "uint256",
          "name": "adopted",
          "type": "uint256"
        },
        {
          "internalType": "uint256",
          "name": "deadline",
          "type": "uint256"
        }
      ],
      "stateMutability": "view",
      "type": "function"
    },
    {
      "inputs": [],
      "name": "totalTasks",
      "outputs": [
        {
          "internalType": "uint256",
          "name": "",
          "type": "uint256"
        }
      ],
      "stateMutability": "view",
      "type": "function"
    },
    {
      "inputs": [
        {
          "internalType": "address",
          "name": "newOwner",
          "type": "address"
        }
      ],
      "name": "transferOwnership",
      "outputs": [],
      "stateMutability": "nonpayable",
      "type": "function"
    },
    {
      "inputs": [
        {
          "internalType": "uint256",
          "name": "taskId",
          "type": "uint256"
        },
        {
          "internalType": "uint256",
          "name": "plusAmount",
          "type": "uint256"
        },
        {
          "internalType": "uint256",
          "name": "plusTime",
          "type": "uint256"
        }
      ],
      "name": "updateApplication",
      "outputs": [],
      "stateMutability": "nonpayable",
      "type": "function"
    },
    {
      "inputs": [
        {
          "internalType": "uint256[]",
          "name": "id",
          "type": "uint256[]"
        },
        {
          "internalType": "uint256[]",
          "name": "ss",
          "type": "uint256[]"
        }
      ],
      "name": "updateUsageCounts",
      "outputs": [],
      "stateMutability": "nonpayable",
      "type": "function"
    },
    {
      "inputs": [
        {
          "internalType": "uint256",
          "name": "taskId",
          "type": "uint256"
        },
        {
          "internalType": "string",
          "name": "cid",
          "type": "string"
        },
        {
          "internalType": "uint16",
          "name": "languageId",
          "type": "uint16"
        },
        {
          "internalType": "uint256",
          "name": "fingerprint",
          "type": "uint256"
        }
      ],
      "name": "uploadSubtitle",
      "outputs": [
        {
          "internalType": "uint256",
          "name": "",
          "type": "uint256"
        }
      ],
      "stateMutability": "nonpayable",
      "type": "function"
    },
    {
      "inputs": [
        {
          "internalType": "address",
          "name": "usr",
          "type": "address"
        },
        {
          "internalType": "uint256",
          "name": "deposit_",
          "type": "uint256"
        }
      ],
      "name": "userJoin",
      "outputs": [],
      "stateMutability": "nonpayable",
      "type": "function"
    },
    {
      "inputs": [],
      "name": "vault",
      "outputs": [
        {
          "internalType": "address",
          "name": "",
          "type": "address"
        }
      ],
      "stateMutability": "view",
      "type": "function"
    },
    {
      "inputs": [],
      "name": "videoToken",
      "outputs": [
        {
          "internalType": "address",
          "name": "",
          "type": "address"
        }
      ],
      "stateMutability": "view",
      "type": "function"
    },
    {
      "inputs": [
        {
          "internalType": "address",
          "name": "platform",
          "type": "address"
        },
        {
          "internalType": "uint256[]",
          "name": "day",
          "type": "uint256[]"
        }
      ],
      "name": "withdraw",
      "outputs": [
        {
          "internalType": "uint256",
          "name": "",
          "type": "uint256"
        }
      ],
      "stateMutability": "nonpayable",
      "type": "function"
    },
    {
      "inputs": [
        {
          "internalType": "uint256",
          "name": "amount",
          "type": "uint256"
        }
      ],
      "name": "withdrawDeposit",
      "outputs": [],
      "stateMutability": "nonpayable",
      "type": "function"
    },
    {
      "inputs": [],
      "name": "zimuToken",
      "outputs": [
        {
          "internalType": "address",
          "name": "",
          "type": "address"
        }
      ],
      "stateMutability": "view",
      "type": "function"
    }
  ],
  "bytecode": "0x60806040523480156200001157600080fd5b5060405162005c2338038062005c2383398101604081905262000034916200019e565b6200003f81620000a8565b6008805460018101825560009190915260408051808201909152600780825266111959985d5b1d60ca1b6020909201918252620000a0927ff3f7a9fe364faab93b216da50a3214154f22a0a2b415b23a84c8169e8b636ee3019190620000f8565b50506200020d565b600080546001600160a01b038381166001600160a01b0319831681178455604051919092169283917f8be0079c531659141344cd1fd0a4f28419497f9722a3daafe3b4186f6b6457e09190a35050565b8280546200010690620001d0565b90600052602060002090601f0160209004810192826200012a576000855562000175565b82601f106200014557805160ff191683800117855562000175565b8280016001018555821562000175579182015b828111156200017557825182559160200191906001019062000158565b506200018392915062000187565b5090565b5b8082111562000183576000815560010162000188565b600060208284031215620001b157600080fd5b81516001600160a01b0381168114620001c957600080fd5b9392505050565b600181811c90821680620001e557607f821691505b602082108114156200020757634e487b7160e01b600052602260045260246000fd5b50919050565b615a06806200021d6000396000f3fe608060405234801561001057600080fd5b506004361061022a5760003560e01c806388c3eaff1161012c57806388c3eaff1461047b5780638d9776721461048e5780638da5cb5b146104b65780638de728c3146104c757806394fec79f146104da578063a3111bdb146104e3578063a93e5cef146104f6578063c481c04514610509578063c48a931c1461052a578063d0e30db01461054a578063d22c81e514610553578063d68036471461055c578063ddca3f43146105a2578063e4e505ee146105b7578063e759dcd0146105ca578063e8fb5d22146105dd578063e94a61ae146105f0578063ea05657c14610603578063ea80eae414610616578063f2fde38b14610629578063f579622b1461063c578063fb74121a1461064f578063fbfa77cf1461066257600080fd5b80630275dc5d1461022f57806308b79e14146102445780630e75d4151461026f5780631cd0af281461028f5780631db11e73146102a25780631f53ea4b146102c6578063264859cb146102d957806328729232146102ec57806329d2f450146102ff5780632fdd215e1461031257806333289a46146103335780633aa08c7c146103465780635aaf6287146103595780635deea7461461036c578063621208d91461037f578063699b3237146103925780636d70f7ae146103a557806373bb6ac0146103e157806373e01efb146103f457806376d1fd491461042f578063793c13b5146104425780638293744b1461045557806386497b7e14610468575b600080fd5b61024261023d3660046148bb565b610675565b005b6102576102523660046149ba565b61089b565b60405161ffff90911681526020015b60405180910390f35b600554610282906001600160a01b031681565b6040516102669190614a6a565b601054610282906001600160a01b031681565b6102b56102b03660046148bb565b610a34565b604051610266959493929190614ac2565b6102426102d4366004614b2c565b610b2e565b6102426102e7366004614b8d565b610c79565b6102576102fa366004614baa565b610d1f565b600a54610282906001600160a01b031681565b6103256103203660046148bb565b610d4b565b604051908152602001610266565b6102426103413660046148bb565b61100b565b610242610354366004614be6565b61113e565b610325610367366004614c1f565b611431565b600254610282906001600160a01b031681565b61024261038d366004614c1f565b61146b565b6102426103a0366004614c60565b6114ab565b6103d16103b3366004614b8d565b6001600160a01b031660009081526001602052604090205460ff1690565b6040519015158152602001610266565b6102426103ef366004614c8c565b6115a9565b6104076104023660046148bb565b6118b8565b604080519586526020860194909452928401919091526060830152608082015260a001610266565b600f54610282906001600160a01b031681565b610242610450366004614cb1565b611986565b610325610463366004614d39565b611aba565b600e54610282906001600160a01b031681565b610242610489366004614d98565b611fb5565b6104a161049c3660046148bb565b61204e565b60405161026699989796959493929190614e0d565b6000546001600160a01b0316610282565b6102426104d5366004614eda565b612134565b61032560115481565b6102426104f1366004614f40565b612174565b610325610504366004614f86565b61224b565b61051c610517366004615017565b612858565b604051610266929190615034565b61053d610538366004614d98565b612915565b6040516102669190615058565b61032560065481565b61032560135481565b61058d61056a366004614b8d565b6001600160a01b0316600090815260096020526040902080546001909101549091565b60408051928352602083019190915201610266565b60055461025790600160a01b900461ffff1681565b6102426105c5366004614b8d565b6129c8565b6102426105d8366004614c60565b612a63565b6102426105eb36600461506b565b612bb7565b600354610282906001600160a01b031681565b610242610611366004615097565b612cff565b610242610624366004614b8d565b6130df565b610242610637366004614b8d565b61317a565b61024261064a3660046148bb565b6131d6565b61032561065d3660046150f0565b613255565b600454610282906001600160a01b031681565b60008181526014602052604090206004015460ff16156106b05760405162461bcd60e51b81526004016106a790615150565b60405180910390fd5b600554604051639bca8a2960e01b81526000916001600160a01b031690639bca8a29906106e1903090600401614a6a565b60006040518083038186803b1580156106f957600080fd5b505afa15801561070d573d6000803e3d6000fd5b505050506040513d6000823e601f3d908101601f1916820160405261073591908101906151b2565b7f7e7fa33969761a458e04f477e039a608702b4f924981d6653935a8319a08ad7b54600a54600089815260146020526040908190206008015490516331a9108f60e11b815260048101919091529297506001600160a01b039182169650631899ca5f95508894503093501690636352211e9060240160206040518083038186803b1580156107c257600080fd5b505afa1580156107d6573d6000803e3d6000fd5b505050506040513d601f19601f820116820180604052508101906107fa9190615247565b6000878152601460209081526040808320600801548352600b90915280822090516001600160e01b031960e088901b168152610844959493929189916003909101906004016152a2565b602060405180830381600087803b15801561085e57600080fd5b505af1158015610872573d6000803e3d6000fd5b505050506040513d601f19601f8201168201806040525081019061089691906152e5565b505050565b6000805b8251811015610a1e5760088382815181106108bc576108bc6152fe565b602090810291909101810151825460018101845560009384529282902081516108ee9491909101929190910190614822565b506007838281518110610903576109036152fe565b60200260200101516040516109189190615314565b9081526040519081900360200190205461ffff16156109495760405162461bcd60e51b81526004016106a790615330565b60085461095890600190615363565b600784838151811061096c5761096c6152fe565b60200260200101516040516109819190615314565b908152602001604051809103902060006101000a81548161ffff021916908361ffff1602179055507f90de228dee0605259423a988ce153c9485cc6325b472e0d4900cc77e432294628382815181106109dc576109dc6152fe565b602002602001015160016008805490506109f69190615363565b604051610a0492919061537a565b60405180910390a180610a16816153a0565b91505061089f565b50600854610a2e90600190615363565b92915050565b6000818152600b6020908152604080832080546001820154600283015460038401805486518189028101890190975280875288978897606097889760ff1696959493600490910192849190830182828015610ab857602002820191906000526020600020905b81546001600160a01b03168152600190910190602001808311610a9a575b5050505050915080805480602002602001604051908101604052809291908181526020018280548015610b1457602002820191906000526020600020905b81546001600160a01b03168152600190910190602001808311610af6575b505050505090509450945094509450945091939590929450565b6000546001600160a01b03163314610b585760405162461bcd60e51b81526004016106a7906153bb565b6001600160a01b038216610b7e5760405162461bcd60e51b81526004016106a7906153d8565b60ff8316600090815260126020908152604090912080546001600160a01b0319166001600160a01b0385161781558251610bc092600190920191840190614822565b5060ff83166000908152601260205260409020546001600160a01b031615610c135760ff83166000908152601260209081526040808320546001600160a01b0316835260019091529020805460ff191690555b6001600160a01b038216600090815260016020819052604091829020805460ff19169091179055517ffe7a72823ef2858b4f44a3a728a93b18a9a2bd480962708b9568ac4a5653b8ee90610c6c908590859085906153f5565b60405180910390a1505050565b6000546001600160a01b03163314610ca35760405162461bcd60e51b81526004016106a7906153bb565b6001600160a01b038116610cc95760405162461bcd60e51b81526004016106a7906153d8565b600f80546001600160a01b0319166001600160a01b0383161790556040517f141131bc079b7ca93af08d8d002e7b5c05980b35119d25bcfbf50a474d8e4f7f90610d14908390614a6a565b60405180910390a150565b6000600782604051610d319190615314565b9081526040519081900360200190205461ffff1692915050565b60055460405163da3118b760e01b8152600481018390526000918291829182916001600160a01b039091169063da3118b79060240160006040518083038186803b158015610d9857600080fd5b505afa158015610dac573d6000803e3d6000fd5b505050506040513d6000823e601f3d908101601f19168201604052610dd4919081019061542b565b5095505094505050925060008111610e175760405162461bcd60e51b81526004016106a7906020808252600490820152634552313160e01b604082015260600190565b600554604051639bca8a2960e01b815260009182916001600160a01b0390911690639bca8a2990610e4c908890600401614a6a565b60006040518083038186803b158015610e6457600080fd5b505afa158015610e78573d6000803e3d6000fd5b505050506040513d6000823e601f3d908101601f19168201604052610ea091908101906151b2565b5090945092506000915061ffff9050610ebb8582851661552a565b610ec890620f424061552a565b610ed29190615549565b90506000610ee089836134f5565b90508015610f4f57600354604051630107289f60e41b81526001600160a01b039091169063107289f090610f1c9087908a90869060040161556b565b600060405180830381600087803b158015610f3657600080fd5b505af1158015610f4a573d6000803e3d6000fd5b505050505b6005546001600160a01b03166385ef9c9b8a610f6d8860001961558a565b6040516001600160e01b031960e085901b16815260048101929092526024820152604401600060405180830381600087803b158015610fab57600080fd5b505af1158015610fbf573d6000803e3d6000fd5b505050507f97a628715758aec012fad464591d7f79e0aa8c976b33fd58fd8f4c2dd1c58503898683604051610ff69392919061560f565b60405180910390a15092979650505050505050565b336000908152600960205260408120600101541361103b5760405162461bcd60e51b81526004016106a7906153d8565b3360009081526009602052604090206001015481111561106a5750336000908152600960205260409020600101545b336000908152600960205260408120600101805483929061108c908490615625565b909155505060048054600254604051636efcfaad60e11b81526001600160a01b039283169363ddf9f55a936110c79316913391879101615664565b600060405180830381600087803b1580156110e157600080fd5b505af11580156110f5573d6000803e3d6000fd5b505033600081815260096020526040908190206001015490517ff4ad098c36442abec46b27d122a28c6c47f8734862a1e55019b8d38649ea07869450610d149350859190615688565b6000546001600160a01b031633146111685760405162461bcd60e51b81526004016106a7906153bb565b6001600160a01b03811661118e5760405162461bcd60e51b81526004016106a7906153d8565b60ff82166111ed57600280546001600160a01b0319166001600160a01b0383161790556040517f08c317d71a27e3dfca204d6ca65032977890b64d0bb25a1f9dfbec5b031013c8906111e1908390614a6a565b60405180910390a15050565b8160ff16600114156112b857600380546001600160a01b0319166001600160a01b038381169190911790915560055416156112895760035460055460405163c08ad31560e01b81526001600160a01b039283169263c08ad3159261125692911690600401614a6a565b600060405180830381600087803b15801561127057600080fd5b505af1158015611284573d6000803e3d6000fd5b505050505b7fb277bcb19384acdda5bb6f18f70aaeb940819c7a7b57499da45695d5c2091b0e816040516111e19190614a6a565b8160ff166002141561130f57600a80546001600160a01b0319166001600160a01b0383161790556040517fc86d00792bf1e12e88a44ba4e23ce500127de980a86aafa6a8b5b964325f92e3906111e1908390614a6a565b8160ff166003141561136657600480546001600160a01b0319166001600160a01b0383161790556040517fb1700d28d54162712825ffc5b1c2c71e27a3abb8bd687d2b89cfdcb49adc076e906111e1908390614a6a565b8160ff166004141561142d57600580546001600160a01b0319166001600160a01b038381169190911790915560035416156113fe5760035460405163c08ad31560e01b81526001600160a01b039091169063c08ad315906113cb908490600401614a6a565b600060405180830381600087803b1580156113e557600080fd5b505af11580156113f9573d6000803e3d6000fd5b505050505b7fd92407b3aa7624ccce1b043a3e6012aed8c63f58935f3d4268c8b04a7f3c5d68816040516111e19190614a6a565b5050565b6001600160a01b038084166000908152600960209081526040808320938616835260029093018152828220848352905220545b9392505050565b3360009081526001602081905260409091205460ff161515146114a05760405162461bcd60e51b81526004016106a7906153bb565b610896838383613811565b6000838152601460205260409020546001600160a01b031633146114e15760405162461bcd60e51b81526004016106a7906153bb565b600083815260146020526040902060080154156115105760405162461bcd60e51b81526004016106a790615150565b600083815260146020526040812060050180548492906115319084906156a9565b9091555050600083815260146020526040812060090180548392906115579084906156a9565b909155505060008381526014602052604090819020600581015460099091015491517f35ed1ca837379b509c5c95274a7943d5f9cd8aa516cd91f4b58041bfc4d66c2092610c6c92879290919061560f565b6000828152600b602090815260408083206001015483526014909152902060080154156115e85760405162461bcd60e51b81526004016106a7906156c1565b8060ff16600114156116aa57600f60009054906101000a90046001600160a01b03166001600160a01b03166341b3d1856040518163ffffffff1660e01b815260040160206040518083038186803b15801561164257600080fd5b505afa158015611656573d6000803e3d6000fd5b505050506040513d601f19601f8201168201806040525081019061167a91906152e5565b33600090815260096020526040902060010154146116aa5760405162461bcd60e51b81526004016106a7906153bb565b6116b5336000613824565b600f54336000908152600960205260409081902080546001919091015491516309435fb560e21b81526001600160a01b039093169263250d7ed4926117069291600401918252602082015260400190565b60206040518083038186803b15801561171e57600080fd5b505afa158015611732573d6000803e3d6000fd5b505050506040513d601f19601f8201168201806040525081019061175691906156de565b6117725760405162461bcd60e51b81526004016106a7906153bb565b61177d82823361389b565b600080600080600061178e876118b8565b600e546011546040516309fff33560e31b8152600481018890526024810187905260448101869052606481018590526084810184905260a4810191909152959a50939850919650945092506000916001600160a01b0390911690634fff99a89060c40160206040518083038186803b15801561180957600080fd5b505afa15801561181d573d6000803e3d6000fd5b505050506040513d601f19601f8201168201806040525081019061184191906156fb565b905060ff81161580159061186457506000888152600b602052604090205460ff16155b156118ae576118738882613a68565b61187d8882613ad2565b8060ff16600114156118ae576000888152600b60209081526040808320600101548352601490915290206008018890555b5050505050505050565b6000818152600b60209081526040808320600101548084526014909252822060070154829182918291829182805b82811015611953576000848152601460205260408120600701805483908110611911576119116152fe565b6000918252602080832090910154808352600b90915260409091206003015490915061193d90846156a9565b925050808061194b906153a0565b9150506118e6565b506000988952600b602052604090982060038101546004820154600290920154929a909991985090965090945092505050565b3360009081526001602081905260409091205460ff161515146119bb5760405162461bcd60e51b81526004016106a7906153bb565b6000828152601460205260409020600801546119d8906002613a68565b6000828152601460205260408120600801556119f74262093a806156a9565b6000838152601460209081526040808320600981019490945560049384015460ff16835260129091529081902054905163fac06c4360e01b8152918201849052602482018390526001600160a01b03169063fac06c4390604401600060405180830381600087803b158015611a6b57600080fd5b505af1158015611a7f573d6000803e3d6000fd5b505060408051858152602081018590527f756c55e39153292d4ef64014a21f1d7801201a332e6c72b45f5a7a218981201393500190506111e1565b60008060005b8351811015611c21573360009081526009602090815260408083206001600160a01b0389168452600201909152812085518290879085908110611b0557611b056152fe565b6020026020010151815260200190815260200160002054118015611b4f5750601154848281518110611b3957611b396152fe565b6020026020010151611b4b91906156a9565b4210155b15611c0f573360009081526009602090815260408083206001600160a01b038916845260020190915281208551909190869084908110611b9157611b916152fe565b602002602001015181526020019081526020016000205482611bb391906156a9565b3360009081526009602090815260408083206001600160a01b038a1684526002019091528120865192945090918290879085908110611bf457611bf46152fe565b60200260200101518152602001908152602001600020819055505b80611c19816153a0565b915050611ac0565b508015611f7157600554604051639bca8a2960e01b81526000916001600160a01b031690639bca8a2990611c59908890600401614a6a565b60006040518083038186803b158015611c7157600080fd5b505afa158015611c85573d6000803e3d6000fd5b505050506040513d6000823e601f3d908101601f19168201604052611cad91908101906151b2565b5050600554909350600160a01b900461ffff16159150611e6e90505760055460009061271090611ce890600160a01b900461ffff168561552a565b611cf29190615549565b9050611cfe8184615363565b92506001600160a01b0386163014611d7e5760035460048054604051630107289f60e41b81526001600160a01b039384169363107289f093611d4793889392169187910161556b565b600060405180830381600087803b158015611d6157600080fd5b505af1158015611d75573d6000803e3d6000fd5b50505050611e09565b600254600480546040516323b872dd60e01b81526001600160a01b03938416936323b872dd93611db5933093921691879101615664565b602060405180830381600087803b158015611dcf57600080fd5b505af1158015611de3573d6000803e3d6000fd5b505050506040513d601f19601f82011682018060405250810190611e0791906156de565b505b6004805460405163108887f960e21b8152918201849052602482018390526001600160a01b0316906342221fe490604401600060405180830381600087803b158015611e5457600080fd5b505af1158015611e68573d6000803e3d6000fd5b50505050505b6001600160a01b0385163014611ee957600354604051630107289f60e41b81526001600160a01b039091169063107289f090611eb29084903390879060040161556b565b600060405180830381600087803b158015611ecc57600080fd5b505af1158015611ee0573d6000803e3d6000fd5b50505050611f6f565b60025460405163a9059cbb60e01b81526001600160a01b039091169063a9059cbb90611f1b9033908690600401615718565b602060405180830381600087803b158015611f3557600080fd5b505af1158015611f49573d6000803e3d6000fd5b505050506040513d601f19601f82011682018060405250810190611f6d91906156de565b505b505b7f48462eddab712eed4d61f328a488b0145debaa43da5efde2468413e9c5393cf733858584604051611fa69493929190615761565b60405180910390a19392505050565b3360009081526001602081905260409091205460ff16151514611fea5760405162461bcd60e51b81526004016106a7906153bb565b60055460405163feb768a360e01b815261ffff831660048201526001600160a01b039091169063feb768a390602401600060405180830381600087803b15801561203357600080fd5b505af1158015612047573d6000803e3d6000fd5b5050505050565b60146020526000908152604090208054600182015460028301546003840180546001600160a01b03948516959490931693919261208a9061579e565b80601f01602080910402602001604051908101604052809291908181526020018280546120b69061579e565b80156121035780601f106120d857610100808354040283529160200191612103565b820191906000526020600020905b8154815290600101906020018083116120e657829003601f168201915b5050506004840154600585015460068601546008870154600990970154959660ff9093169591945061ffff16925089565b3360009081526001602081905260409091205460ff161515146121695760405162461bcd60e51b81526004016106a7906153bb565b610896838383614061565b6000546001600160a01b0316331461219e5760405162461bcd60e51b81526004016106a7906153bb565b60005b82518110156122055781600160008584815181106121c1576121c16152fe565b6020908102919091018101516001600160a01b03168252810191909152604001600020805460ff1916911515919091179055806121fd816153a0565b9150506121a1565b508015158260405161221791906157d9565b604051908190038120907f6fe7cd0563aebb5e4e99409417b943dcd23e200b600962ac773009db204233c290600090a35050565b6000612258336000613824565b600f54336000908152600960205260409081902080546001919091015491516309435fb560e21b81526001600160a01b039093169263250d7ed4926122a99291600401918252602082015260400190565b60206040518083038186803b1580156122c157600080fd5b505afa1580156122d5573d6000803e3d6000fd5b505050506040513d601f19601f820116820180604052508101906122f991906156de565b6123155760405162461bcd60e51b81526004016106a7906153bb565b4283116123345760405162461bcd60e51b81526004016106a7906153d8565b60ff86166000908152601260205260409020546001600160a01b031661236c5760405162461bcd60e51b81526004016106a790615150565b6013805490600061237c836153a0565b90915550506001600160a01b03881630141561248e5760ff8616156123c95760405162461bcd60e51b815260206004820152600360248201526245523760e81b60448201526064016106a7565b60008251116124025760405162461bcd60e51b81526020600482015260056024820152644552312d3760d81b60448201526064016106a7565b6002546040516323b872dd60e01b81526001600160a01b03909116906323b872dd9061243690339030908a90600401615664565b602060405180830381600087803b15801561245057600080fd5b505af1158015612464573d6000803e3d6000fd5b505050506040513d601f19601f8201168201806040525081019061248891906156de565b50612643565b60055460405163da3118b760e01b81526004810189905260009182916001600160a01b039091169063da3118b79060240160006040518083038186803b1580156124d757600080fd5b505afa1580156124eb573d6000803e3d6000fd5b505050506040513d6000823e601f3d908101601f19168201604052612513919081019061542b565b965050509450505050336001600160a01b0316826001600160a01b03161461254d5760405162461bcd60e51b81526004016106a7906153bb565b60005b81518110156125c857600082828151811061256d5761256d6152fe565b6020908102919091018101516000818152601490925260409091206006015490915061ffff898116911614156125b55760405162461bcd60e51b81526004016106a790615330565b50806125c0816153a0565b915050612550565b5060006125db828a60ff166013546140b1565b60055460405162b8240d60e41b81529192506001600160a01b031690630b8240d09061260d908d908590600401615818565b600060405180830381600087803b15801561262757600080fd5b505af115801561263b573d6000803e3d6000fd5b505050505050505b8560ff1660021480612656575060ff8616155b156126d65760ff861660009081526012602052604080822054601354915163bd80123160e01b81526001600160a01b039091169263bd801231926126a3929091908a908290600401615831565b600060405180830381600087803b1580156126bd57600080fd5b505af11580156126d1573d6000803e3d6000fd5b505050505b6013805460009081526014602090815260408083208054336001600160a01b031991821617909155845484528184206002018c905584548452818420600401805460ff191660ff8d16179055845484528184206005018a905584548452818420600601805461ffff191661ffff8b16179055845484528184206009018890558454845281842060010180549091166001600160a01b038e1617905592548252919020835161278c92600390920191850190614822565b5060035433600081815260096020526040808220549051630107289f60e41b81526001600160a01b039094169363107289f0936127ce9392909160040161556b565b600060405180830381600087803b1580156127e857600080fd5b505af11580156127fc573d6000803e3d6000fd5b505050507f552e081116c21885e388accbf0275fbfb758238d1b04237fff749061d9a72424338989898989896013548a60405161284199989796959493929190615850565b60405180910390a150601354979650505050505050565b60ff811660009081526012602052604081208054600190910180546060926001600160a01b03169190819061288c9061579e565b80601f01602080910402602001604051908101604052809291908181526020018280546128b89061579e565b80156129055780601f106128da57610100808354040283529160200191612905565b820191906000526020600020905b8154815290600101906020018083116128e857829003601f168201915b5050505050905091509150915091565b606060088261ffff168154811061292e5761292e6152fe565b9060005260206000200180546129439061579e565b80601f016020809104026020016040519081016040528092919081815260200182805461296f9061579e565b80156129bc5780601f10612991576101008083540402835291602001916129bc565b820191906000526020600020905b81548152906001019060200180831161299f57829003601f168201915b50505050509050919050565b6000546001600160a01b031633146129f25760405162461bcd60e51b81526004016106a7906153bb565b6001600160a01b038116612a185760405162461bcd60e51b81526004016106a7906153d8565b601080546001600160a01b0319166001600160a01b0383161790556040517f470ec44ead58d8875c956a389bdb710dcdc3cfcd1a601540691b30b5efcf7c7790610d14908390614a6a565b6000838152601460205260409020546001600160a01b03163314612a995760405162461bcd60e51b81526004016106a7906153bb565b600083815260146020526040902060080154158015612ac75750600083815260146020526040902060070154155b8015612ae457506000838152601460205260409020600901544210155b612b185760405162461bcd60e51b81526020600482015260056024820152644552312d3560d81b60448201526064016106a7565b60008381526014602052604090206004015460ff16612b495760405162461bcd60e51b81526004016106a790615150565b428111612b685760405162461bcd60e51b81526004016106a7906153d8565b6000838152601460205260409081902060098101839055600501839055517f4def1aaccaac82e9103ef071fe31f5651a3e338b2ae037cfb7725c3eca9fb51690610c6c9085908590859061560f565b600254600480546040516323b872dd60e01b81526001600160a01b03938416936323b872dd93612bee933393921691879101615664565b602060405180830381600087803b158015612c0857600080fd5b505af1158015612c1c573d6000803e3d6000fd5b505050506040513d601f19601f82011682018060405250810190612c4091906156de565b506001600160a01b038216600090815260096020526040902054612c7157612c6781614278565b61142d8282613824565b6001600160a01b03821660009081526009602052604081206001018054839290612c9c9084906158b8565b90915550612cab905081614278565b6001600160a01b03821660009081526009602052604090819020805460019091015491517fbc09618bc77172ebc0e046c72f495cd682958c43dd15faff368975f18a3d5a0a926111e1928692909190615688565b8051825114612d205760405162461bcd60e51b81526004016106a7906153d8565b60005b82518110156130ab57600060146000858481518110612d4457612d446152fe565b602002602001015181526020019081526020016000206008015411156130995760055483516000916001600160a01b03169063da3118b7906014908490889087908110612d9357612d936152fe565b60200260200101518152602001908152602001600020600201546040518263ffffffff1660e01b8152600401612dcb91815260200190565b60006040518083038186803b158015612de357600080fd5b505afa158015612df7573d6000803e3d6000fd5b505050506040513d6000823e601f3d908101601f19168201604052612e1f919081019061542b565b5050600554604051639bca8a2960e01b81529596506000956001600160a01b039091169450639bca8a299350612e5b9250869150600401614a6a565b60006040518083038186803b158015612e7357600080fd5b505afa158015612e87573d6000803e3d6000fd5b505050506040513d6000823e601f3d908101601f19168201604052612eaf91908101906151b2565b509350505050816001600160a01b0316336001600160a01b031614612ee65760405162461bcd60e51b81526004016106a7906153bb565b60146000868581518110612efc57612efc6152fe565b60209081029190910181015182528101919091526040016000206004015460ff1615801590612f62575060146000868581518110612f3c57612f3c6152fe565b60209081029190910181015182528101919091526040016000206004015460ff16600214155b612f7e5760405162461bcd60e51b81526004016106a7906153d8565b6012600060146000888781518110612f9857612f986152fe565b602090810291909101810151825281810192909252604090810160009081206004015460ff16845291830193909352910190205485516001600160a01b039091169063bd80123190879086908110612ff257612ff26152fe565b602002602001015186868151811061300c5761300c6152fe565b6020026020010151601460008a898151811061302a5761302a6152fe565b6020026020010151815260200190815260200160002060050154856040518563ffffffff1660e01b81526004016130649493929190615831565b600060405180830381600087803b15801561307e57600080fd5b505af1158015613092573d6000803e3d6000fd5b5050505050505b806130a3816153a0565b915050612d23565b507f49de03a48f2d145bbebe50d32dffc47109f0846c23f21290c9f54a741aab7f053383836040516111e1939291906158f9565b6000546001600160a01b031633146131095760405162461bcd60e51b81526004016106a7906153bb565b6001600160a01b03811661312f5760405162461bcd60e51b81526004016106a7906153d8565b600e80546001600160a01b0319166001600160a01b0383161790556040517f1b4cbe91ecf2e88172c5623b0fbeb6f8eea92b0d825306a6237625dc2452259a90610d14908390614a6a565b6000546001600160a01b031633146131a45760405162461bcd60e51b81526004016106a7906153bb565b6001600160a01b0381166131ca5760405162461bcd60e51b81526004016106a7906153d8565b6131d3816142a8565b50565b6000546001600160a01b031633146132005760405162461bcd60e51b81526004016106a7906153bb565b600081116132205760405162461bcd60e51b81526004016106a7906153d8565b60118190556040518181527fddda2129649b8d3c13605fd431e58aa0af3eda0702c0a57e171a9ed90989d32090602001610d14565b600084815260146020526040812060080154156132845760405162461bcd60e51b81526004016106a7906156c1565b6000858152601460205260409020600701546132cb576000858152601460205260409020600901544211156132cb5760405162461bcd60e51b81526004016106a7906156c1565b60008581526014602052604090206006015461ffff8481169116146133185760405162461bcd60e51b815260206004820152600360248201526245523960e81b60448201526064016106a7565b613323336000613824565b600f54336000908152600960205260409081902080546001919091015491516309435fb560e21b81526001600160a01b039093169263250d7ed4926133749291600401918252602082015260400190565b60206040518083038186803b15801561338c57600080fd5b505afa1580156133a0573d6000803e3d6000fd5b505050506040513d601f19601f820116820180604052508101906133c491906156de565b6133e05760405162461bcd60e51b81526004016106a7906153bb565b60006133eb866142f8565b6010549091506001600160a01b0316156134b6576010546040516318e8f49560e11b81526001600160a01b03909116906331d1e92a906134319086908590600401615818565b60206040518083038186803b15801561344957600080fd5b505afa15801561345d573d6000803e3d6000fd5b505050506040513d601f19601f8201168201806040525081019061348191906156de565b6134b65760405162461bcd60e51b81526004016106a7906020808252600490820152630455231360e41b604082015260600190565b60006134c53388888888614455565b60008881526014602090815260408220600701805460018101825590835291200181905592505050949350505050565b60055460405163da3118b760e01b815260048101849052600091829182916001600160a01b03169063da3118b79060240160006040518083038186803b15801561353e57600080fd5b505afa158015613552573d6000803e3d6000fd5b505050506040513d6000823e601f3d908101601f1916820160405261357a919081019061542b565b600554604051639bca8a2960e01b81529799509097506000966001600160a01b039091169550639bca8a2994506135b993508892506004019050614a6a565b60006040518083038186803b1580156135d157600080fd5b505afa1580156135e5573d6000803e3d6000fd5b505050506040513d6000823e601f3d908101601f1916820160405261360d91908101906151b2565b94505050505060005b8251811015613806576000838281518110613633576136336152fe565b6020908102919091018101516000818152601490925260409091206004015490915060ff1615801590613676575060008181526014602052604090206008015415155b80156136825750600087115b156137f357600081815260146020818152604080842060048082015460ff1686526012845282862054600a548888529590945260089091015491516331a9108f60e11b81526001600160a01b0393841694631899ca5f9488948d949290911692636352211e926136f792910190815260200190565b60206040518083038186803b15801561370f57600080fd5b505afa158015613723573d6000803e3d6000fd5b505050506040513d601f19601f820116820180604052508101906137479190615247565b6000878152601460209081526040808320600801548352600b9091529081902090516001600160e01b031960e087901b168152613791949392918f918c91600301906004016152a2565b602060405180830381600087803b1580156137ab57600080fd5b505af11580156137bf573d6000803e3d6000fd5b505050506040513d601f19601f820116820180604052508101906137e391906152e5565b90506137ef8189615363565b9750505b50806137fe816153a0565b915050613616565b509395945050505050565b6108968361381d61450c565b8385614520565b6001600160a01b03821660009081526009602052604090205461142d576001600160a01b038216600090815260096020526040908190206103e8808255600190910183905590517f9355839b7b67fd6e2485ad85238a7449f6ded48cbe176bd3c463dd2b645ff1ba916111e1918591908590615688565b6000838152600b602052604090205460ff16156138ca5760405162461bcd60e51b81526004016106a7906156c1565b6001600160a01b0381166000908152600c6020908152604080832086845290915290205460ff161561390e5760405162461bcd60e51b81526004016106a790615939565b60ff82166139c0576001600160a01b0381166000908152600d60209081526040808320868452600b8352818420600101548452909152902054156139645760405162461bcd60e51b81526004016106a790615939565b6000838152600b60209081526040808320600381018054600180820183559186528486200180546001600160a01b0319166001600160a01b0388169081179091558552600d8452828520910154845290915290208390556139fb565b6000838152600b602090815260408220600401805460018101825590835291200180546001600160a01b0319166001600160a01b0383161790555b6001600160a01b0381166000818152600c60209081526040808320878452825291829020805460ff1916600117905581518681529081019290925260ff8416908201527f302c645d2268a36235b96cfc33f21f85d7dd6525b340b801899e8b8d7846c44390606001610c6c565b6000828152600b6020908152604091829020805460ff191660ff85169081178255426002830155600190910154835186815292830191909152918101919091527fbdee5e861830ed1c224df6174df0128922d6b8e4dd09ae2afe2aaf53e32db0da906060016111e1565b600f5460408051630d9f6b9160e11b815290516001926000926001600160a01b0390911691631b3ed72291600480820192602092909190829003018186803b158015613b1d57600080fd5b505afa158015613b31573d6000803e3d6000fd5b505050506040513d601f19601f82011682018060405250810190613b5591906156fb565b90508260ff1660021415613b695760001991505b600f54600a546040516331a9108f60e11b81526004810187905260009283926001600160a01b0391821692630b9c8dce926009928692911690636352211e9060240160206040518083038186803b158015613bc357600080fd5b505afa158015613bd7573d6000803e3d6000fd5b505050506040513d601f19601f82011682018060405250810190613bfb9190615247565b6001600160a01b03168152602081019190915260409081016000205490516001600160e01b031960e084901b168152600481019190915260ff88166024820152604401604080518083038186803b158015613c5557600080fd5b505afa158015613c69573d6000803e3d6000fd5b505050506040513d601f19601f82011682018060405250810190613c8d9190615956565b600a546040516331a9108f60e11b8152600481018a9052929450909250613d68916001600160a01b0390911690636352211e9060240160206040518083038186803b158015613cdb57600080fd5b505afa158015613cef573d6000803e3d6000fd5b505050506040513d601f19601f82011682018060405250810190613d139190615247565b600086900b6064613d2760ff88168761552a565b613d319190615549565b613d3b919061558a565b600087900b6064613d4f60ff89168761552a565b613d599190615549565b613d63919061558a565b61462e565b505060005b6000858152600b6020526040902060030154811015613ed957600f546000868152600b602052604081206003018054919283926001600160a01b0390911691630b9c8dce91600991859188908110613dc757613dc76152fe565b6000918252602080832091909101546001600160a01b03168352820192909252604090810190912054905160e083901b6001600160e01b0319168152600481019190915260ff89166024820152604401604080518083038186803b158015613e2e57600080fd5b505afa158015613e42573d6000803e3d6000fd5b505050506040513d601f19601f82011682018060405250810190613e669190615956565b91509150613ec4600b60008981526020019081526020016000206003018481548110613e9457613e946152fe565b60009182526020822001546001600160a01b031690613eb69088900b8561558a565b613d63600089900b8561558a565b50508080613ed1906153a0565b915050613d6d565b5060005b6000858152600b602052604090206004015481101561204757600f546000868152600b602052604081206004018054919283926001600160a01b0390911691630b9c8dce91600991859188908110613f3757613f376152fe565b6000918252602080832091909101546001600160a01b03168352820192909252604090810190912054905160e083901b6001600160e01b0319168152600481019190915260ff89166024820152604401604080518083038186803b158015613f9e57600080fd5b505afa158015613fb2573d6000803e3d6000fd5b505050506040513d601f19601f82011682018060405250810190613fd69190615956565b9150915061404c600b60008981526020019081526020016000206004018481548110614004576140046152fe565b60009182526020822001546001600160a01b0316906140269088900b8561558a565b6140329060001961558a565b614040600089900b8561558a565b613d639060001961558a565b50508080614059906153a0565b915050613edd565b60005b82518110156140ab576140998461407961450c565b8486858151811061408c5761408c6152fe565b6020026020010151614520565b806140a3816153a0565b915050614064565b50505050565b60606000845160016140c391906156a9565b6001600160401b038111156140da576140da6148d4565b604051908082528060200260200182016040528015614103578160200160208202803683370190505b509050805160011415614136578281600081518110614124576141246152fe565b60209081029190910101529050611464565b6000600186516141469190615363565b90505b80156141a35760146000878381518110614165576141656152fe565b60209081029190910181015182528101919091526040016000206004015460ff168510614191576141a3565b8061419b8161597a565b915050614149565b60005b825181101561426d578181116141f3578681815181106141c8576141c86152fe565b60200260200101518382815181106141e2576141e26152fe565b60200260200101818152505061425b565b6141fe8260016156a9565b81141561421857848382815181106141e2576141e26152fe565b86614224600183615363565b81518110614234576142346152fe565b602002602001015183828151811061424e5761424e6152fe565b6020026020010181815250505b80614265816153a0565b9150506141a6565b509095945050505050565b80156131d35760008160065461428e91906158b8565b90506000811361429f5760006142a1565b805b6006555050565b600080546001600160a01b038381166001600160a01b0319831681178455604051919092169283917f8be0079c531659141344cd1fd0a4f28419497f9722a3daafe3b4186f6b6457e09190a35050565b600081815260146020526040812060070154606091906001600160401b03811115614325576143256148d4565b60405190808252806020026020018201604052801561434e578160200160208202803683370190505b50905060005b60008481526014602052604090206007015481101561444e57600a54600085815260146020526040902060070180546001600160a01b039092169163d6f323c69190849081106143a6576143a66152fe565b90600052602060002001546040518263ffffffff1660e01b81526004016143cf91815260200190565b60206040518083038186803b1580156143e757600080fd5b505afa1580156143fb573d6000803e3d6000fd5b505050506040513d601f19601f8201168201806040525081019061441f91906152e5565b828281518110614431576144316152fe565b602090810291909101015280614446816153a0565b915050614354565b5092915050565b600a54604051636a18f8ef60e01b815260009182916001600160a01b0390911690636a18f8ef90614492908a908a908a908a908a90600401615991565b602060405180830381600087803b1580156144ac57600080fd5b505af11580156144c0573d6000803e3d6000fd5b505050506040513d601f19601f820116820180604052508101906144e491906152e5565b6000818152600b60205260409020600181018890554260029091015591505095945050505050565b600061451b6201518042615549565b905090565b6001600160a01b0381166000908152600960205260409020546145555760405162461bcd60e51b81526004016106a790615330565b6001600160a01b0380821660009081526009602090815260408083209388168352600290930181528282208683529052908120549061459484836158b8565b9050600081136145a55760006145a7565b805b6001600160a01b038481166000818152600960209081526040808320948c16808452600290950182528083208b845282529182902094909455805191825292810191909152908101869052606081018590527f7a3b7621e1e2606fa77559253d4ea69786f77a1f71df1c5728f593f17b0b291b9060800160405180910390a1505050505050565b6001600160a01b0383166000908152600960205260408120546146529084906158b8565b905060008113614663576000614665565b805b6001600160a01b038516600090815260096020526040812091909155821215614742576001600160a01b0384166000908152600960205260409020600101546146af9083906158b8565b6001600160a01b0380861660009081526009602052604090206001019190915560045416634a22a1256146e48460001961558a565b6040518263ffffffff1660e01b815260040161470291815260200190565b600060405180830381600087803b15801561471c57600080fd5b505af1158015614730573d6000803e3d6000fd5b5050505061473d82614278565b6147a7565b600254604051634d24848760e11b81526001600160a01b0390911690639a49090e906147749087908690600401615718565b600060405180830381600087803b15801561478e57600080fd5b505af11580156147a2573d6000803e3d6000fd5b505050505b6001600160a01b0384166000908152600960205260409020546147e1576001600160a01b0384166000908152600960205260409020600190555b7fbc09618bc77172ebc0e046c72f495cd682958c43dd15faff368975f18a3d5a0a84848460405161481493929190615688565b60405180910390a150505050565b82805461482e9061579e565b90600052602060002090601f0160209004810192826148505760008555614896565b82601f1061486957805160ff1916838001178555614896565b82800160010185558215614896579182015b8281111561489657825182559160200191906001019061487b565b506148a29291506148a6565b5090565b5b808211156148a257600081556001016148a7565b6000602082840312156148cd57600080fd5b5035919050565b634e487b7160e01b600052604160045260246000fd5b604051601f8201601f191681016001600160401b0381118282101715614912576149126148d4565b604052919050565b60006001600160401b03821115614933576149336148d4565b5060051b60200190565b60006001600160401b03821115614956576149566148d4565b50601f01601f191660200190565b600082601f83011261497557600080fd5b81356149886149838261493d565b6148ea565b81815284602083860101111561499d57600080fd5b816020850160208301376000918101602001919091529392505050565b600060208083850312156149cd57600080fd5b82356001600160401b03808211156149e457600080fd5b818501915085601f8301126149f857600080fd5b8135614a066149838261491a565b81815260059190911b83018401908481019088831115614a2557600080fd5b8585015b83811015614a5d57803585811115614a415760008081fd5b614a4f8b89838a0101614964565b845250918601918601614a29565b5098975050505050505050565b6001600160a01b0391909116815260200190565b600081518084526020808501945080840160005b83811015614ab75781516001600160a01b031687529582019590820190600101614a92565b509495945050505050565b60ff8616815284602082015283604082015260a060608201526000614aea60a0830185614a7e565b8281036080840152614afc8185614a7e565b98975050505050505050565b60ff811681146131d357600080fd5b6001600160a01b03811681146131d357600080fd5b600080600060608486031215614b4157600080fd5b8335614b4c81614b08565b92506020840135614b5c81614b17565b915060408401356001600160401b03811115614b7757600080fd5b614b8386828701614964565b9150509250925092565b600060208284031215614b9f57600080fd5b813561146481614b17565b600060208284031215614bbc57600080fd5b81356001600160401b03811115614bd257600080fd5b614bde84828501614964565b949350505050565b60008060408385031215614bf957600080fd5b8235614c0481614b08565b91506020830135614c1481614b17565b809150509250929050565b600080600060608486031215614c3457600080fd5b8335614c3f81614b17565b92506020840135614c4f81614b17565b929592945050506040919091013590565b600080600060608486031215614c7557600080fd5b505081359360208301359350604090920135919050565b60008060408385031215614c9f57600080fd5b823591506020830135614c1481614b08565b60008060408385031215614cc457600080fd5b50508035926020909101359150565b600082601f830112614ce457600080fd5b81356020614cf46149838361491a565b82815260059290921b84018101918181019086841115614d1357600080fd5b8286015b84811015614d2e5780358352918301918301614d17565b509695505050505050565b60008060408385031215614d4c57600080fd5b8235614d5781614b17565b915060208301356001600160401b03811115614d7257600080fd5b614d7e85828601614cd3565b9150509250929050565b61ffff811681146131d357600080fd5b600060208284031215614daa57600080fd5b813561146481614d88565b60005b83811015614dd0578181015183820152602001614db8565b838111156140ab5750506000910152565b60008151808452614df9816020860160208601614db5565b601f01601f19169290920160200192915050565b6001600160a01b038a81168252891660208201526040810188905261012060608201819052600090614e418382018a614de1565b60ff989098166080840152505060a081019490945261ffff9290921660c084015260e083015261010090910152949350505050565b600082601f830112614e8757600080fd5b81356020614e976149838361491a565b82815260059290921b84018101918181019086841115614eb657600080fd5b8286015b84811015614d2e578035614ecd81614b17565b8352918301918301614eba565b600080600060608486031215614eef57600080fd5b8335614efa81614b17565b925060208401356001600160401b03811115614f1557600080fd5b614f2186828701614e76565b925050604084013590509250925092565b80151581146131d357600080fd5b60008060408385031215614f5357600080fd5b82356001600160401b03811115614f6957600080fd5b614f7585828601614e76565b9250506020830135614c1481614f32565b600080600080600080600060e0888a031215614fa157600080fd5b8735614fac81614b17565b9650602088013595506040880135614fc381614b08565b9450606088013593506080880135614fda81614d88565b925060a0880135915060c08801356001600160401b03811115614ffc57600080fd5b6150088a828b01614964565b91505092959891949750929550565b60006020828403121561502957600080fd5b813561146481614b08565b6001600160a01b0383168152604060208201819052600090614bde90830184614de1565b6020815260006114646020830184614de1565b6000806040838503121561507e57600080fd5b823561508981614b17565b946020939093013593505050565b600080604083850312156150aa57600080fd5b82356001600160401b03808211156150c157600080fd5b6150cd86838701614cd3565b935060208501359150808211156150e357600080fd5b50614d7e85828601614cd3565b6000806000806080858703121561510657600080fd5b8435935060208501356001600160401b0381111561512357600080fd5b61512f87828801614964565b935050604085013561514081614d88565b9396929550929360600135925050565b60208082526003908201526222a91b60e91b604082015260600190565b600082601f83011261517e57600080fd5b815161518c6149838261493d565b8181528460208386010111156151a157600080fd5b614bde826020830160208701614db5565b600080600080600060a086880312156151ca57600080fd5b85516001600160401b03808211156151e157600080fd5b6151ed89838a0161516d565b9650602088015191508082111561520357600080fd5b506152108882890161516d565b94505060408601519250606086015161522881614d88565b608087015190925061523981614d88565b809150509295509295909350565b60006020828403121561525957600080fd5b815161146481614b17565b6000815480845260208085019450836000528060002060005b83811015614ab75781546001600160a01b03168752958201956001918201910161527d565b8681526001600160a01b038681166020830152851660408201526060810184905261ffff8316608082015260c060a08201819052600090614afc90830184615264565b6000602082840312156152f757600080fd5b5051919050565b634e487b7160e01b600052603260045260246000fd5b60008251615326818460208701614db5565b9190910192915050565b60208082526003908201526204552360ec1b604082015260600190565b634e487b7160e01b600052601160045260246000fd5b6000828210156153755761537561534d565b500390565b60408152600061538d6040830185614de1565b905061ffff831660208301529392505050565b60006000198214156153b4576153b461534d565b5060010190565b60208082526003908201526245523560e81b604082015260600190565b60208082526003908201526245523160e81b604082015260600190565b60ff841681526001600160a01b038316602082015260606040820181905260009061542290830184614de1565b95945050505050565b600080600080600080600060e0888a03121561544657600080fd5b875161545181614b17565b80975050602080890151965060408901516001600160401b038082111561547757600080fd5b6154838c838d0161516d565b975060608b0151915061549582614b17565b60808b015160a08c015160c08d01519398509096509450808211156154b957600080fd5b508901601f81018b136154cb57600080fd5b80516154d96149838261491a565b81815260059190911b8201830190838101908d8311156154f857600080fd5b928401925b82841015615516578351825292840192908401906154fd565b809550505050505092959891949750929550565b60008160001904831182151516156155445761554461534d565b500290565b60008261556657634e487b7160e01b600052601260045260246000fd5b500490565b9283526001600160a01b03919091166020830152604082015260600190565b60006001600160ff1b03818413828413808216868404861116156155b0576155b061534d565b600160ff1b60008712828116878305891216156155cf576155cf61534d565b600087129250878205871284841616156155eb576155eb61534d565b878505871281841616156156015761560161534d565b505050929093029392505050565b9283526020830191909152604082015260600190565b60008083128015600160ff1b8501841216156156435761564361534d565b6001600160ff1b038401831381161561565e5761565e61534d565b50500390565b6001600160a01b039384168152919092166020820152604081019190915260600190565b6001600160a01b039390931683526020830191909152604082015260600190565b600082198211156156bc576156bc61534d565b500190565b60208082526003908201526245523360e81b604082015260600190565b6000602082840312156156f057600080fd5b815161146481614f32565b60006020828403121561570d57600080fd5b815161146481614b08565b6001600160a01b03929092168252602082015260400190565b600081518084526020808501945080840160005b83811015614ab757815187529582019590820190600101615745565b6001600160a01b0385811682528416602082015260806040820181905260009061578d90830185615731565b905082606083015295945050505050565b600181811c908216806157b257607f821691505b602082108114156157d357634e487b7160e01b600052602260045260246000fd5b50919050565b815160009082906020808601845b8381101561580c5781516001600160a01b0316855293820193908201906001016157e7565b50929695505050505050565b828152604060208201526000614bde6040830184615731565b9384526020840192909252604083015261ffff16606082015260800190565b600061012060018060a01b03808d168452808c1660208501525089604084015260ff8916606084015287608084015261ffff871660a08401528560c08401528460e0840152806101008401526158a881840185614de1565b9c9b505050505050505050505050565b600080821280156001600160ff1b03849003851316156158da576158da61534d565b600160ff1b83900384128116156158f3576158f361534d565b50500190565b6001600160a01b038416815260606020820181905260009061591d90830185615731565b828103604084015261592f8185615731565b9695505050505050565b60208082526003908201526211548d60ea1b604082015260600190565b6000806040838503121561596957600080fd5b505080516020909101519092909150565b6000816159895761598961534d565b506000190190565b60018060a01b038616815284602082015260a0604082015260006159b860a0830186614de1565b61ffff9490941660608301525060800152939250505056fea2646970667358221220046f1cdafe12e96a2520ee5545474dff94d8b054480503d4052f991d9177194b64736f6c63430008090033",
  "linkReferences": {},
  "deployedLinkReferences": {}
}