{
  "_format": "hh-sol-artifact-1",
  "contractName": "Platforms",
  "sourceName": "contracts/components/Platform/Platforms.sol",
  "abi": [
    {
      "inputs": [
        {
          "internalType": "address",
          "name": "op",
          "type": "address"
        },
        {
          "internalType": "address",
          "name": "murmes",
          "type": "address"
        }
      ],
      "stateMutability": "nonpayable",
      "type": "constructor"
    },
    {
      "anonymous": false,
      "inputs": [
        {
          "indexed": false,
          "internalType": "address",
          "name": "platform",
          "type": "address"
        },
        {
          "indexed": false,
          "internalType": "uint256",
          "name": "id",
          "type": "uint256"
        },
        {
          "indexed": false,
          "internalType": "string",
          "name": "name",
          "type": "string"
        },
        {
          "indexed": false,
          "internalType": "string",
          "name": "symbol",
          "type": "string"
        },
        {
          "indexed": false,
          "internalType": "uint16",
          "name": "rate1",
          "type": "uint16"
        },
        {
          "indexed": false,
          "internalType": "uint16",
          "name": "rate2",
          "type": "uint16"
        }
      ],
      "name": "PlatformJoin",
      "type": "event"
    },
    {
      "anonymous": false,
      "inputs": [
        {
          "indexed": false,
          "internalType": "address",
          "name": "platform",
          "type": "address"
        },
        {
          "indexed": false,
          "internalType": "uint16",
          "name": "rate1",
          "type": "uint16"
        },
        {
          "indexed": false,
          "internalType": "uint16",
          "name": "rate2",
          "type": "uint16"
        }
      ],
      "name": "PlatformSetRate",
      "type": "event"
    },
    {
      "anonymous": false,
      "inputs": [
        {
          "indexed": false,
          "internalType": "address",
          "name": "newOpeator",
          "type": "address"
        }
      ],
      "name": "SystemChangeOpeator",
      "type": "event"
    },
    {
      "anonymous": false,
      "inputs": [
        {
          "indexed": false,
          "internalType": "address",
          "name": "platform",
          "type": "address"
        },
        {
          "indexed": false,
          "internalType": "uint256[]",
          "name": "id",
          "type": "uint256[]"
        },
        {
          "indexed": false,
          "internalType": "uint256[]",
          "name": "counts",
          "type": "uint256[]"
        }
      ],
      "name": "VideoCountsUpdate",
      "type": "event"
    },
    {
      "anonymous": false,
      "inputs": [
        {
          "indexed": false,
          "internalType": "address",
          "name": "platform",
          "type": "address"
        },
        {
          "indexed": false,
          "internalType": "uint256",
          "name": "realId",
          "type": "uint256"
        },
        {
          "indexed": false,
          "internalType": "uint256",
          "name": "id",
          "type": "uint256"
        },
        {
          "indexed": false,
          "internalType": "string",
          "name": "symbol",
          "type": "string"
        },
        {
          "indexed": false,
          "internalType": "address",
          "name": "creator",
          "type": "address"
        }
      ],
      "name": "VideoCreate",
      "type": "event"
    },
    {
      "inputs": [],
      "name": "Murmes",
      "outputs": [
        {
          "internalType": "address",
          "name": "",
          "type": "address"
        }
      ],
      "stateMutability": "view",
      "type": "function"
    },
    {
      "inputs": [
        {
          "internalType": "address",
          "name": "newOpeator",
          "type": "address"
        }
      ],
      "name": "changeOpeator",
      "outputs": [],
      "stateMutability": "nonpayable",
      "type": "function"
    },
    {
      "inputs": [
        {
          "internalType": "uint256",
          "name": "id",
          "type": "uint256"
        },
        {
          "internalType": "string",
          "name": "symbol",
          "type": "string"
        },
        {
          "internalType": "address",
          "name": "creator",
          "type": "address"
        }
      ],
      "name": "createVideo",
      "outputs": [
        {
          "internalType": "uint256",
          "name": "",
          "type": "uint256"
        }
      ],
      "stateMutability": "nonpayable",
      "type": "function"
    },
    {
      "inputs": [
        {
          "internalType": "address",
          "name": "platform",
          "type": "address"
        }
      ],
      "name": "getPlatformBaseInfo",
      "outputs": [
        {
          "internalType": "string",
          "name": "",
          "type": "string"
        },
        {
          "internalType": "string",
          "name": "",
          "type": "string"
        },
        {
          "internalType": "uint256",
          "name": "",
          "type": "uint256"
        },
        {
          "internalType": "uint16",
          "name": "",
          "type": "uint16"
        },
        {
          "internalType": "uint16",
          "name": "",
          "type": "uint16"
        }
      ],
      "stateMutability": "view",
      "type": "function"
    },
    {
      "inputs": [
        {
          "internalType": "uint256",
          "name": "videoId",
          "type": "uint256"
        }
      ],
      "name": "getVideoBaseInfo",
      "outputs": [
        {
          "internalType": "address",
          "name": "",
          "type": "address"
        },
        {
          "internalType": "uint256",
          "name": "",
          "type": "uint256"
        },
        {
          "internalType": "string",
          "name": "",
          "type": "string"
        },
        {
          "internalType": "address",
          "name": "",
          "type": "address"
        },
        {
          "internalType": "uint256",
          "name": "",
          "type": "uint256"
        },
        {
          "internalType": "uint256",
          "name": "",
          "type": "uint256"
        },
        {
          "internalType": "uint256[]",
          "name": "",
          "type": "uint256[]"
        }
      ],
      "stateMutability": "view",
      "type": "function"
    },
    {
      "inputs": [],
      "name": "opeator",
      "outputs": [
        {
          "internalType": "address",
          "name": "",
          "type": "address"
        }
      ],
      "stateMutability": "view",
      "type": "function"
    },
    {
      "inputs": [
        {
          "internalType": "uint16",
          "name": "rate1",
          "type": "uint16"
        },
        {
          "internalType": "uint16",
          "name": "rate2",
          "type": "uint16"
        }
      ],
      "name": "platformRate",
      "outputs": [
        {
          "internalType": "uint16",
          "name": "",
          "type": "uint16"
        },
        {
          "internalType": "uint16",
          "name": "",
          "type": "uint16"
        }
      ],
      "stateMutability": "nonpayable",
      "type": "function"
    },
    {
      "inputs": [
        {
          "internalType": "address",
          "name": "platfrom",
          "type": "address"
        },
        {
          "internalType": "string",
          "name": "name",
          "type": "string"
        },
        {
          "internalType": "string",
          "name": "symbol",
          "type": "string"
        },
        {
          "internalType": "uint16",
          "name": "rate1",
          "type": "uint16"
        },
        {
          "internalType": "uint16",
          "name": "rate2",
          "type": "uint16"
        }
      ],
      "name": "platfromJoin",
      "outputs": [],
      "stateMutability": "nonpayable",
      "type": "function"
    },
    {
      "inputs": [
        {
          "internalType": "uint16",
          "name": "auditorDivide",
          "type": "uint16"
        }
      ],
      "name": "setMurmesAuditorDivideRate",
      "outputs": [],
      "stateMutability": "nonpayable",
      "type": "function"
    },
    {
      "inputs": [],
      "name": "totalPlatforms",
      "outputs": [
        {
          "internalType": "uint256",
          "name": "",
          "type": "uint256"
        }
      ],
      "stateMutability": "view",
      "type": "function"
    },
    {
      "inputs": [],
      "name": "totalVideos",
      "outputs": [
        {
          "internalType": "uint256",
          "name": "",
          "type": "uint256"
        }
      ],
      "stateMutability": "view",
      "type": "function"
    },
    {
      "inputs": [
        {
          "internalType": "uint256",
          "name": "videoId",
          "type": "uint256"
        },
        {
          "internalType": "uint256[]",
          "name": "tasks",
          "type": "uint256[]"
        }
      ],
      "name": "updateVideoTasks",
      "outputs": [],
      "stateMutability": "nonpayable",
      "type": "function"
    },
    {
      "inputs": [
        {
          "internalType": "uint256",
          "name": "videoId",
          "type": "uint256"
        },
        {
          "internalType": "int256",
          "name": "differ",
          "type": "int256"
        }
      ],
      "name": "updateVideoUnsettled",
      "outputs": [],
      "stateMutability": "nonpayable",
      "type": "function"
    },
    {
      "inputs": [
        {
          "internalType": "uint256[]",
          "name": "id",
          "type": "uint256[]"
        },
        {
          "internalType": "uint256[]",
          "name": "vs",
          "type": "uint256[]"
        }
      ],
      "name": "updateViewCounts",
      "outputs": [],
      "stateMutability": "nonpayable",
      "type": "function"
    }
  ],
  "bytecode": "0x60806040523480156200001157600080fd5b5060405162001910380380620019108339810160408190526200003491620001eb565b600380546001600160a01b03199081166001600160a01b03848116918217845560048054909316908616179091556000818152600660208181526040808420958601805463ffff0000191663028f000017905580518082019091526007815266111959985d5b1d60ca1b818301908152949093525251620000b792919062000128565b506040805180820182526007815266111959985d5b1d60ca1b60208083019182526001600160a01b0385166000908152600690915292909220905162000104926001909201919062000128565b506001600560008282546200011a919062000223565b909155506200028792505050565b82805462000136906200024a565b90600052602060002090601f0160209004810192826200015a5760008555620001a5565b82601f106200017557805160ff1916838001178555620001a5565b82800160010185558215620001a5579182015b82811115620001a557825182559160200191906001019062000188565b50620001b3929150620001b7565b5090565b5b80821115620001b35760008155600101620001b8565b80516001600160a01b0381168114620001e657600080fd5b919050565b60008060408385031215620001ff57600080fd5b6200020a83620001ce565b91506200021a60208401620001ce565b90509250929050565b600082198211156200024557634e487b7160e01b600052601160045260246000fd5b500190565b600181811c908216806200025f57607f821691505b602082108114156200028157634e487b7160e01b600052602260045260246000fd5b50919050565b61167980620002976000396000f3fe608060405234801561001057600080fd5b50600436106100ba5760003560e01c80630b8240d0146100bf578063167624ec146100d45780632a3ce1a4146100fa5780632df685931461012857806364cc323f1461013b57806374bb22fe1461015b57806385ef9c9b1461016e5780639bca8a2914610181578063b8fcef8b146101a5578063c08ad315146101ae578063da3118b7146101c1578063e230a208146101e7578063fa3f8567146101f0578063feb768a314610203575b600080fd5b6100d26100cd366004610f7a565b610216565b005b6100e76100e2366004611047565b610273565b6040519081526020015b60405180910390f35b61010d6101083660046110b8565b6102bd565b6040805161ffff9384168152929091166020830152016100f1565b6100d26101363660046110eb565b6103fe565b60045461014e906001600160a01b031681565b6040516100f19190611182565b60035461014e906001600160a01b031681565b6100d261017c366004611196565b6106a4565b61019461018f3660046111b8565b610718565b6040516100f1959493929190611229565b6100e760055481565b6100d26101bc3660046111b8565b610886565b6101d46101cf366004611271565b610906565b6040516100f197969594939291906112c5565b6100e760005481565b6100d26101fe366004611322565b610a50565b6100d261021136600461137b565b610c0f565b6003546001600160a01b031633146102495760405162461bcd60e51b815260040161024090611396565b60405180910390fd5b6000828152600160209081526040909120825161026e92600690920191840190610de2565b505050565b3360009081526006602052604081206003015461ffff166102a65760405162461bcd60e51b8152600401610240906113b3565b60006102b433868686610ca3565b95945050505050565b60008061ffff84161515806102d5575061ffff831615155b6102f15760405162461bcd60e51b8152600401610240906113b3565b3360009081526006602052604090206003015461ffff1661033a5760405162461bcd60e51b815260206004820152600360248201526222a91960e91b6044820152606401610240565b61ffff84161561036657336000908152600660205260409020600301805461ffff191661ffff86161790555b61ffff83161561039957336000908152600660205260409020600301805463ffff000019166201000061ffff8616021790555b7f7d07d6e6f7e20d3e822b52403568ff69d07e849c5fb471a7f31801d722b5ade73385856040516103cc939291906113d0565b60405180910390a150503360009081526006602052604090206003015461ffff80821691620100009004169250929050565b6004546001600160a01b031633146104285760405162461bcd60e51b815260040161024090611396565b6001600160a01b03851660009081526006602052604090206003015461ffff16156104655760405162461bcd60e51b8152600401610240906113f5565b60008261ffff1611801561047d575060008161ffff16115b6104995760405162461bcd60e51b8152600401610240906113b3565b6040805160a08101825285815260208082018690526005548284015261ffff8086166060840152841660808301526001600160a01b0388166000908152600682529290922081518051929391926104f39284920190610e2d565b50602082810151805161050c9260018501920190610e2d565b506040820151600282015560608201516003909101805460809093015161ffff908116620100000263ffffffff199094169216919091179190911790556005805490600061055983611428565b9091555050600354604080516374a530d760e11b815290516000926001600160a01b03169163e94a61ae916004808301926020929190829003018186803b1580156105a357600080fd5b505afa1580156105b7573d6000803e3d6000fd5b505050506040513d601f19601f820116820180604052508101906105db9190611443565b9050806001600160a01b0316632d34f632858860016005546105fd9190611460565b6040518463ffffffff1660e01b815260040161061b93929190611477565b600060405180830381600087803b15801561063557600080fd5b505af1158015610649573d6000803e3d6000fd5b505050507ff7ab3642f3af1eb7a3d99172b39d3b81500f0d2e8ca42817bf14e6f588c3a5dd86600160055461067e9190611460565b87878787604051610694969594939291906114a5565b60405180910390a1505050505050565b6003546001600160a01b031633146106ce5760405162461bcd60e51b815260040161024090611396565b6000828152600160205260408120600501546106eb908390611500565b9050600081136106fc5760006106fe565b805b600093845260016020526040909320600501929092555050565b6001600160a01b0381166000908152600660205260408120600281015460038201548254606094859490938493849360018401929161ffff80821692620100009092041690859061076890611541565b80601f016020809104026020016040519081016040528092919081815260200182805461079490611541565b80156107e15780601f106107b6576101008083540402835291602001916107e1565b820191906000526020600020905b8154815290600101906020018083116107c457829003601f168201915b505050505094508380546107f490611541565b80601f016020809104026020016040519081016040528092919081815260200182805461082090611541565b801561086d5780601f106108425761010080835404028352916020019161086d565b820191906000526020600020905b81548152906001019060200180831161085057829003601f168201915b50989f939e50959c50939a509198509650505050505050565b6004546001600160a01b031633146108b05760405162461bcd60e51b815260040161024090611396565b600480546001600160a01b0319166001600160a01b0383161790556040517fc230166d5b3c6ebe94babff2e9235c3d9567bab83962dff750557845669baf3c906108fb908390611182565b60405180910390a150565b6000818152600160208190526040822080549181015460038201546004830154600584015460028501805488976060978997889788978b976001600160a01b039586169793969395909216939092600690910190859061096590611541565b80601f016020809104026020016040519081016040528092919081815260200182805461099190611541565b80156109de5780601f106109b3576101008083540402835291602001916109de565b820191906000526020600020905b8154815290600101906020018083116109c157829003601f168201915b5050505050945080805480602002602001604051908101604052809291908181526020018280548015610a3057602002820191906000526020600020905b815481526020019060010190808311610a1c575b505050505090509650965096509650965096509650919395979092949650565b8051825114610a6157610a6161157c565b60005b8251811015610b945760016000848381518110610a8357610a83611592565b6020908102919091018101518252810191909152604001600020546001600160a01b03163314610ac55760405162461bcd60e51b815260040161024090611396565b818181518110610ad757610ad7611592565b602002602001015160016000858481518110610af557610af5611592565b602002602001015181526020019081526020016000206004016000828254610b1d91906115a8565b92505081905550818181518110610b3657610b36611592565b602002602001015160016000858481518110610b5457610b54611592565b602002602001015181526020019081526020016000206005016000828254610b7c91906115a8565b90915550819050610b8c81611428565b915050610a64565b507f9c3aabf4229f3c7892abb038272114250e74a07e02539cb9114ef52ec2c1a48e6001600084600081518110610bcd57610bcd611592565b60209081029190910181015182528101919091526040908101600020549051610c03916001600160a01b031690859085906115c0565b60405180910390a15050565b6003546001600160a01b03163314610c395760405162461bcd60e51b815260040161024090611396565b600380546001600160a01b039081166000908152600660205260408082208401805463ffff000019166201000061ffff881602179055925492517f7d07d6e6f7e20d3e822b52403568ff69d07e849c5fb471a7f31801d722b5ade7936108fb9316919085906113d0565b600080548180610cb283611428565b90915550506001600160a01b038516600090815260026020908152604080832087845290915290205415610cf85760405162461bcd60e51b8152600401610240906113f5565b60008054815260016020818152604080842080546001600160a01b0319166001600160a01b038b16179055835484528084209092018790558254835291208451610d4a92600290920191860190610e2d565b5060008054815260016020908152604080832060030180546001600160a01b0319166001600160a01b038781169190911790915583549089168452600283528184208885529092529182902081905590517f558f31dc5dee6a560ed9a994f922e339f40c7c310f47862194463a2c68908d6c91610dce918891889188908890611600565b60405180910390a150600054949350505050565b828054828255906000526020600020908101928215610e1d579160200282015b82811115610e1d578251825591602001919060010190610e02565b50610e29929150610ea0565b5090565b828054610e3990611541565b90600052602060002090601f016020900481019282610e5b5760008555610e1d565b82601f10610e7457805160ff1916838001178555610e1d565b82800160010185558215610e1d5791820182811115610e1d578251825591602001919060010190610e02565b5b80821115610e295760008155600101610ea1565b634e487b7160e01b600052604160045260246000fd5b604051601f8201601f191681016001600160401b0381118282101715610ef357610ef3610eb5565b604052919050565b600082601f830112610f0c57600080fd5b813560206001600160401b03821115610f2757610f27610eb5565b8160051b610f36828201610ecb565b9283528481018201928281019087851115610f5057600080fd5b83870192505b84831015610f6f57823582529183019190830190610f56565b979650505050505050565b60008060408385031215610f8d57600080fd5b8235915060208301356001600160401b03811115610faa57600080fd5b610fb685828601610efb565b9150509250929050565b600082601f830112610fd157600080fd5b81356001600160401b03811115610fea57610fea610eb5565b610ffd601f8201601f1916602001610ecb565b81815284602083860101111561101257600080fd5b816020850160208301376000918101602001919091529392505050565b6001600160a01b038116811461104457600080fd5b50565b60008060006060848603121561105c57600080fd5b8335925060208401356001600160401b0381111561107957600080fd5b61108586828701610fc0565b92505060408401356110968161102f565b809150509250925092565b803561ffff811681146110b357600080fd5b919050565b600080604083850312156110cb57600080fd5b6110d4836110a1565b91506110e2602084016110a1565b90509250929050565b600080600080600060a0868803121561110357600080fd5b853561110e8161102f565b945060208601356001600160401b038082111561112a57600080fd5b61113689838a01610fc0565b9550604088013591508082111561114c57600080fd5b5061115988828901610fc0565b935050611168606087016110a1565b9150611176608087016110a1565b90509295509295909350565b6001600160a01b0391909116815260200190565b600080604083850312156111a957600080fd5b50508035926020909101359150565b6000602082840312156111ca57600080fd5b81356111d58161102f565b9392505050565b6000815180845260005b81811015611202576020818501810151868301820152016111e6565b81811115611214576000602083870101525b50601f01601f19169290920160200192915050565b60a08152600061123c60a08301886111dc565b828103602084015261124e81886111dc565b6040840196909652505061ffff9283166060820152911660809091015292915050565b60006020828403121561128357600080fd5b5035919050565b600081518084526020808501945080840160005b838110156112ba5781518752958201959082019060010161129e565b509495945050505050565b600060018060a01b03808a16835288602084015260e060408401526112ed60e08401896111dc565b81881660608501528660808501528560a085015283810360c0850152611313818661128a565b9b9a5050505050505050505050565b6000806040838503121561133557600080fd5b82356001600160401b038082111561134c57600080fd5b61135886838701610efb565b9350602085013591508082111561136e57600080fd5b50610fb685828601610efb565b60006020828403121561138d57600080fd5b6111d5826110a1565b60208082526003908201526245523560e81b604082015260600190565b60208082526003908201526245523160e81b604082015260600190565b6001600160a01b0393909316835261ffff918216602084015216604082015260600190565b60208082526003908201526204552360ec1b604082015260600190565b634e487b7160e01b600052601160045260246000fd5b600060001982141561143c5761143c611412565b5060010190565b60006020828403121561145557600080fd5b81516111d58161102f565b60008282101561147257611472611412565b500390565b60608152600061148a60608301866111dc565b6001600160a01b039490941660208301525060400152919050565b60018060a01b038716815285602082015260c0604082015260006114cc60c08301876111dc565b82810360608401526114de81876111dc565b91505061ffff808516608084015280841660a084015250979650505050505050565b600080821280156001600160ff1b038490038513161561152257611522611412565b600160ff1b839003841281161561153b5761153b611412565b50500190565b600181811c9082168061155557607f821691505b6020821081141561157657634e487b7160e01b600052602260045260246000fd5b50919050565b634e487b7160e01b600052600160045260246000fd5b634e487b7160e01b600052603260045260246000fd5b600082198211156115bb576115bb611412565b500190565b6001600160a01b03841681526060602082018190526000906115e49083018561128a565b82810360408401526115f6818561128a565b9695505050505050565b600060018060a01b03808816835286602084015285604084015260a0606084015261162e60a08401866111dc565b9150808416608084015250969550505050505056fea264697066735822122047f2bfd2761cb566fad95926c645432d92ddb057a21135aff4d0ea7a1c62653864736f6c63430008090033",
  "linkReferences": {},
  "deployedLinkReferences": {}
}