{
  "_format": "hh-sol-artifact-1",
  "contractName": "SubtitleToken",
  "sourceName": "contracts/components/ST.sol",
  "abi": [
    {
      "inputs": [
        {
          "internalType": "address",
          "name": "ss",
          "type": "address"
        }
      ],
      "stateMutability": "nonpayable",
      "type": "constructor"
    },
    {
      "anonymous": false,
      "inputs": [
        {
          "indexed": true,
          "internalType": "address",
          "name": "owner",
          "type": "address"
        },
        {
          "indexed": true,
          "internalType": "address",
          "name": "approved",
          "type": "address"
        },
        {
          "indexed": true,
          "internalType": "uint256",
          "name": "tokenId",
          "type": "uint256"
        }
      ],
      "name": "Approval",
      "type": "event"
    },
    {
      "anonymous": false,
      "inputs": [
        {
          "indexed": true,
          "internalType": "address",
          "name": "owner",
          "type": "address"
        },
        {
          "indexed": true,
          "internalType": "address",
          "name": "operator",
          "type": "address"
        },
        {
          "indexed": false,
          "internalType": "bool",
          "name": "approved",
          "type": "bool"
        }
      ],
      "name": "ApprovalForAll",
      "type": "event"
    },
    {
      "anonymous": false,
      "inputs": [
        {
          "indexed": false,
          "internalType": "address",
          "name": "maker",
          "type": "address"
        },
        {
          "indexed": false,
          "internalType": "uint256",
          "name": "applyId",
          "type": "uint256"
        },
        {
          "indexed": false,
          "internalType": "uint256",
          "name": "subtitleId",
          "type": "uint256"
        },
        {
          "indexed": false,
          "internalType": "string",
          "name": "cid",
          "type": "string"
        },
        {
          "indexed": false,
          "internalType": "uint16",
          "name": "languageId",
          "type": "uint16"
        },
        {
          "indexed": false,
          "internalType": "uint256",
          "name": "fingerprint",
          "type": "uint256"
        }
      ],
      "name": "SubtitleUpload",
      "type": "event"
    },
    {
      "anonymous": false,
      "inputs": [
        {
          "indexed": true,
          "internalType": "address",
          "name": "from",
          "type": "address"
        },
        {
          "indexed": true,
          "internalType": "address",
          "name": "to",
          "type": "address"
        },
        {
          "indexed": true,
          "internalType": "uint256",
          "name": "tokenId",
          "type": "uint256"
        }
      ],
      "name": "Transfer",
      "type": "event"
    },
    {
      "inputs": [
        {
          "internalType": "address",
          "name": "to",
          "type": "address"
        },
        {
          "internalType": "uint256",
          "name": "tokenId",
          "type": "uint256"
        }
      ],
      "name": "approve",
      "outputs": [],
      "stateMutability": "nonpayable",
      "type": "function"
    },
    {
      "inputs": [
        {
          "internalType": "address",
          "name": "owner",
          "type": "address"
        }
      ],
      "name": "balanceOf",
      "outputs": [
        {
          "internalType": "uint256",
          "name": "",
          "type": "uint256"
        }
      ],
      "stateMutability": "view",
      "type": "function"
    },
    {
      "inputs": [
        {
          "internalType": "uint256",
          "name": "tokenId",
          "type": "uint256"
        }
      ],
      "name": "getApproved",
      "outputs": [
        {
          "internalType": "address",
          "name": "",
          "type": "address"
        }
      ],
      "stateMutability": "view",
      "type": "function"
    },
    {
      "inputs": [
        {
          "internalType": "uint256",
          "name": "tokenId",
          "type": "uint256"
        }
      ],
      "name": "getSTFingerprint",
      "outputs": [
        {
          "internalType": "uint256",
          "name": "",
          "type": "uint256"
        }
      ],
      "stateMutability": "view",
      "type": "function"
    },
    {
      "inputs": [
        {
          "internalType": "address",
          "name": "owner",
          "type": "address"
        },
        {
          "internalType": "address",
          "name": "operator",
          "type": "address"
        }
      ],
      "name": "isApprovedForAll",
      "outputs": [
        {
          "internalType": "bool",
          "name": "",
          "type": "bool"
        }
      ],
      "stateMutability": "view",
      "type": "function"
    },
    {
      "inputs": [
        {
          "internalType": "address",
          "name": "maker",
          "type": "address"
        },
        {
          "internalType": "uint256",
          "name": "applyId",
          "type": "uint256"
        },
        {
          "internalType": "string",
          "name": "cid",
          "type": "string"
        },
        {
          "internalType": "uint16",
          "name": "languageId",
          "type": "uint16"
        },
        {
          "internalType": "uint256",
          "name": "fingerprint",
          "type": "uint256"
        }
      ],
      "name": "mintST",
      "outputs": [
        {
          "internalType": "uint256",
          "name": "",
          "type": "uint256"
        }
      ],
      "stateMutability": "nonpayable",
      "type": "function"
    },
    {
      "inputs": [],
      "name": "name",
      "outputs": [
        {
          "internalType": "string",
          "name": "",
          "type": "string"
        }
      ],
      "stateMutability": "view",
      "type": "function"
    },
    {
      "inputs": [
        {
          "internalType": "uint256",
          "name": "tokenId",
          "type": "uint256"
        }
      ],
      "name": "ownerOf",
      "outputs": [
        {
          "internalType": "address",
          "name": "",
          "type": "address"
        }
      ],
      "stateMutability": "view",
      "type": "function"
    },
    {
      "inputs": [
        {
          "internalType": "address",
          "name": "from",
          "type": "address"
        },
        {
          "internalType": "address",
          "name": "to",
          "type": "address"
        },
        {
          "internalType": "uint256",
          "name": "tokenId",
          "type": "uint256"
        }
      ],
      "name": "safeTransferFrom",
      "outputs": [],
      "stateMutability": "nonpayable",
      "type": "function"
    },
    {
      "inputs": [
        {
          "internalType": "address",
          "name": "from",
          "type": "address"
        },
        {
          "internalType": "address",
          "name": "to",
          "type": "address"
        },
        {
          "internalType": "uint256",
          "name": "tokenId",
          "type": "uint256"
        },
        {
          "internalType": "bytes",
          "name": "data",
          "type": "bytes"
        }
      ],
      "name": "safeTransferFrom",
      "outputs": [],
      "stateMutability": "nonpayable",
      "type": "function"
    },
    {
      "inputs": [
        {
          "internalType": "address",
          "name": "operator",
          "type": "address"
        },
        {
          "internalType": "bool",
          "name": "approved",
          "type": "bool"
        }
      ],
      "name": "setApprovalForAll",
      "outputs": [],
      "stateMutability": "nonpayable",
      "type": "function"
    },
    {
      "inputs": [
        {
          "internalType": "uint256",
          "name": "",
          "type": "uint256"
        }
      ],
      "name": "subtitleNFT",
      "outputs": [
        {
          "internalType": "address",
          "name": "maker",
          "type": "address"
        },
        {
          "internalType": "uint256",
          "name": "applyId",
          "type": "uint256"
        },
        {
          "internalType": "uint16",
          "name": "languageId",
          "type": "uint16"
        },
        {
          "internalType": "uint256",
          "name": "fingerprint",
          "type": "uint256"
        }
      ],
      "stateMutability": "view",
      "type": "function"
    },
    {
      "inputs": [],
      "name": "subtitleSystem",
      "outputs": [
        {
          "internalType": "address",
          "name": "",
          "type": "address"
        }
      ],
      "stateMutability": "view",
      "type": "function"
    },
    {
      "inputs": [
        {
          "internalType": "bytes4",
          "name": "interfaceId",
          "type": "bytes4"
        }
      ],
      "name": "supportsInterface",
      "outputs": [
        {
          "internalType": "bool",
          "name": "",
          "type": "bool"
        }
      ],
      "stateMutability": "view",
      "type": "function"
    },
    {
      "inputs": [],
      "name": "symbol",
      "outputs": [
        {
          "internalType": "string",
          "name": "",
          "type": "string"
        }
      ],
      "stateMutability": "view",
      "type": "function"
    },
    {
      "inputs": [
        {
          "internalType": "uint256",
          "name": "tokenId",
          "type": "uint256"
        }
      ],
      "name": "tokenURI",
      "outputs": [
        {
          "internalType": "string",
          "name": "",
          "type": "string"
        }
      ],
      "stateMutability": "view",
      "type": "function"
    },
    {
      "inputs": [
        {
          "internalType": "address",
          "name": "from",
          "type": "address"
        },
        {
          "internalType": "address",
          "name": "to",
          "type": "address"
        },
        {
          "internalType": "uint256",
          "name": "tokenId",
          "type": "uint256"
        }
      ],
      "name": "transferFrom",
      "outputs": [],
      "stateMutability": "nonpayable",
      "type": "function"
    }
  ],
  "bytecode": "0x608060405234801561001057600080fd5b5060405161147438038061147483398101604081905261002f91610054565b600580546001600160a01b0319166001600160a01b0392909216919091179055610084565b60006020828403121561006657600080fd5b81516001600160a01b038116811461007d57600080fd5b9392505050565b6113e1806100936000396000f3fe608060405234801561001057600080fd5b50600436106100db5760003560e01c806301ffc9a7146100e057806306fdde0314610108578063081812fc1461013b578063095ea7b31461016657806323b872dd1461017b57806342842e0e1461018e57806358bc16ee146101a15780636352211e1461021a5780636a18f8ef1461022d57806370a082311461024e57806395d89b4114610261578063a22cb4651461027f578063a58eae0c14610292578063b88d4fde146102a5578063c87b56dd146102b8578063d6f323c6146102cb578063e985e9c5146102ee575b600080fd5b6100f36100ee366004610e20565b610301565b60405190151581526020015b60405180910390f35b60408051808201909152600e81526d29bab13a34ba3632902a37b5b2b760911b60208201525b6040516100ff9190610e91565b61014e610149366004610ea4565b610353565b6040516001600160a01b0390911681526020016100ff565b610179610174366004610ed9565b61037a565b005b610179610189366004610f03565b610495565b61017961019c366004610f03565b6104c6565b6101e76101af366004610ea4565b60076020526000908152604090208054600182015460028301546003909301546001600160a01b0390921692909161ffff9091169084565b604080516001600160a01b039095168552602085019390935261ffff9091169183019190915260608201526080016100ff565b61014e610228366004610ea4565b6104e1565b61024061023b366004610fca565b610515565b6040519081526020016100ff565b61024061025c366004611056565b610621565b60408051808201909152600281526114d560f21b602082015261012e565b61017961028d366004611071565b6106a7565b60055461014e906001600160a01b031681565b6101796102b33660046110ad565b6106b6565b61012e6102c6366004610ea4565b6106ee565b6102406102d9366004610ea4565b60009081526007602052604090206003015490565b6100f36102fc366004611128565b610797565b60006001600160e01b031982166380ac58cd60e01b148061033257506001600160e01b03198216635b5e139f60e01b145b8061034d57506301ffc9a760e01b6001600160e01b03198316145b92915050565b600061035e826107c5565b506000908152600260205260409020546001600160a01b031690565b6000610385826104e1565b9050806001600160a01b0316836001600160a01b031614156103f85760405162461bcd60e51b815260206004820152602160248201527f4552433732313a20617070726f76616c20746f2063757272656e74206f776e656044820152603960f91b60648201526084015b60405180910390fd5b336001600160a01b038216148061041457506104148133610797565b6104865760405162461bcd60e51b815260206004820152603d60248201527f4552433732313a20617070726f76652063616c6c6572206973206e6f7420746f60448201527f6b656e206f776e6572206f7220617070726f76656420666f7220616c6c00000060648201526084016103ef565b61049083836107ed565b505050565b61049f338261085b565b6104bb5760405162461bcd60e51b81526004016103ef9061115b565b6104908383836108ba565b610490838383604051806020016040528060008152506106b6565b6000806104ed83610a22565b90506001600160a01b03811661034d5760405162461bcd60e51b81526004016103ef906111a8565b6005546000906001600160a01b0316331461052f57600080fd5b6004805490600061053f836111da565b919050555061055086600454610a3d565b6004546000908152600660209081526040909120855161057292870190610d71565b506004805460009081526007602052604080822080546001600160a01b0319166001600160a01b038b161790558254825280822060010188905582548252808220600201805461ffff191661ffff88161790558254825290819020600301849055905490517f6ce739b4e30dbbc1a03ad5bce544bed92ab002fa720aea123c9649723eca4d019161060c9189918991899089908990611203565b60405180910390a15060045495945050505050565b60006001600160a01b03821661068b5760405162461bcd60e51b815260206004820152602960248201527f4552433732313a2061646472657373207a65726f206973206e6f7420612076616044820152683634b21037bbb732b960b91b60648201526084016103ef565b506001600160a01b031660009081526001602052604090205490565b6106b2338383610b49565b5050565b6106c0338361085b565b6106dc5760405162461bcd60e51b81526004016103ef9061115b565b6106e884848484610c14565b50505050565b60606106f9826107c5565b6000828152600660205260409020805461071290611249565b80601f016020809104026020016040519081016040528092919081815260200182805461073e90611249565b801561078b5780601f106107605761010080835404028352916020019161078b565b820191906000526020600020905b81548152906001019060200180831161076e57829003601f168201915b50505050509050919050565b6001600160a01b03918216600090815260036020908152604080832093909416825291909152205460ff1690565b6107ce81610c47565b6107ea5760405162461bcd60e51b81526004016103ef906111a8565b50565b600081815260026020526040902080546001600160a01b0319166001600160a01b0384169081179091558190610822826104e1565b6001600160a01b03167f8c5be1e5ebec7d5bd14f71427d1e84f3dd0314c0f7b2291e5b200ac8c7c3b92560405160405180910390a45050565b600080610867836104e1565b9050806001600160a01b0316846001600160a01b0316148061088e575061088e8185610797565b806108b25750836001600160a01b03166108a784610353565b6001600160a01b0316145b949350505050565b826001600160a01b03166108cd826104e1565b6001600160a01b0316146108f35760405162461bcd60e51b81526004016103ef90611284565b6001600160a01b0382166109555760405162461bcd60e51b8152602060048201526024808201527f4552433732313a207472616e7366657220746f20746865207a65726f206164646044820152637265737360e01b60648201526084016103ef565b826001600160a01b0316610968826104e1565b6001600160a01b03161461098e5760405162461bcd60e51b81526004016103ef90611284565b600081815260026020908152604080832080546001600160a01b03199081169091556001600160a01b038781168086526001808652848720805460001901905591881680875284872080549093019092558686529385905282852080549092168117909155905184939192917fddf252ad1be2c89b69c2b068fc378daa952ba7f163c4a11628f55a4df523b3ef91a4505050565b6000908152602081905260409020546001600160a01b031690565b6001600160a01b038216610a935760405162461bcd60e51b815260206004820181905260248201527f4552433732313a206d696e7420746f20746865207a65726f206164647265737360448201526064016103ef565b610a9c81610c47565b15610ab95760405162461bcd60e51b81526004016103ef906112c9565b610ac281610c47565b15610adf5760405162461bcd60e51b81526004016103ef906112c9565b6001600160a01b0382166000818152600160208181526040808420805490930190925584835282905280822080546001600160a01b0319168417905551839291907fddf252ad1be2c89b69c2b068fc378daa952ba7f163c4a11628f55a4df523b3ef908290a45050565b816001600160a01b0316836001600160a01b03161415610ba75760405162461bcd60e51b815260206004820152601960248201527822a9219b99189d1030b8383937bb32903a379031b0b63632b960391b60448201526064016103ef565b6001600160a01b03838116600081815260036020908152604080832094871680845294825291829020805460ff191686151590811790915591519182527f17307eab39ab6107e8899845ad3d59bd9653f200f220920489ca2b5937696c31910160405180910390a3505050565b610c1f8484846108ba565b610c2b84848484610c64565b6106e85760405162461bcd60e51b81526004016103ef906112ff565b600080610c5383610a22565b6001600160a01b0316141592915050565b60006001600160a01b0384163b15610d6657604051630a85bd0160e11b81526001600160a01b0385169063150b7a0290610ca8903390899088908890600401611351565b602060405180830381600087803b158015610cc257600080fd5b505af1925050508015610cf2575060408051601f3d908101601f19168201909252610cef9181019061138e565b60015b610d4c573d808015610d20576040519150601f19603f3d011682016040523d82523d6000602084013e610d25565b606091505b508051610d445760405162461bcd60e51b81526004016103ef906112ff565b805181602001fd5b6001600160e01b031916630a85bd0160e11b1490506108b2565b506001949350505050565b828054610d7d90611249565b90600052602060002090601f016020900481019282610d9f5760008555610de5565b82601f10610db857805160ff1916838001178555610de5565b82800160010185558215610de5579182015b82811115610de5578251825591602001919060010190610dca565b50610df1929150610df5565b5090565b5b80821115610df15760008155600101610df6565b6001600160e01b0319811681146107ea57600080fd5b600060208284031215610e3257600080fd5b8135610e3d81610e0a565b9392505050565b6000815180845260005b81811015610e6a57602081850181015186830182015201610e4e565b81811115610e7c576000602083870101525b50601f01601f19169290920160200192915050565b602081526000610e3d6020830184610e44565b600060208284031215610eb657600080fd5b5035919050565b80356001600160a01b0381168114610ed457600080fd5b919050565b60008060408385031215610eec57600080fd5b610ef583610ebd565b946020939093013593505050565b600080600060608486031215610f1857600080fd5b610f2184610ebd565b9250610f2f60208501610ebd565b9150604084013590509250925092565b634e487b7160e01b600052604160045260246000fd5b60006001600160401b0380841115610f6f57610f6f610f3f565b604051601f8501601f19908116603f01168101908282118183101715610f9757610f97610f3f565b81604052809350858152868686011115610fb057600080fd5b858560208301376000602087830101525050509392505050565b600080600080600060a08688031215610fe257600080fd5b610feb86610ebd565b94506020860135935060408601356001600160401b0381111561100d57600080fd5b8601601f8101881361101e57600080fd5b61102d88823560208401610f55565b935050606086013561ffff8116811461104557600080fd5b949793965091946080013592915050565b60006020828403121561106857600080fd5b610e3d82610ebd565b6000806040838503121561108457600080fd5b61108d83610ebd565b9150602083013580151581146110a257600080fd5b809150509250929050565b600080600080608085870312156110c357600080fd5b6110cc85610ebd565b93506110da60208601610ebd565b92506040850135915060608501356001600160401b038111156110fc57600080fd5b8501601f8101871361110d57600080fd5b61111c87823560208401610f55565b91505092959194509250565b6000806040838503121561113b57600080fd5b61114483610ebd565b915061115260208401610ebd565b90509250929050565b6020808252602d908201527f4552433732313a2063616c6c6572206973206e6f7420746f6b656e206f776e6560408201526c1c881bdc88185c1c1c9bdd9959609a1b606082015260800190565b602080825260189082015277115490cdcc8c4e881a5b9d985b1a59081d1bdad95b88125160421b604082015260600190565b60006000198214156111fc57634e487b7160e01b600052601160045260246000fd5b5060010190565b60018060a01b038716815285602082015284604082015260c06060820152600061123060c0830186610e44565b61ffff9490941660808301525060a00152949350505050565b600181811c9082168061125d57607f821691505b6020821081141561127e57634e487b7160e01b600052602260045260246000fd5b50919050565b60208082526025908201527f4552433732313a207472616e736665722066726f6d20696e636f72726563742060408201526437bbb732b960d91b606082015260800190565b6020808252601c908201527b115490cdcc8c4e881d1bdad95b88185b1c9958591e481b5a5b9d195960221b604082015260600190565b60208082526032908201527f4552433732313a207472616e7366657220746f206e6f6e20455243373231526560408201527131b2b4bb32b91034b6b83632b6b2b73a32b960711b606082015260800190565b6001600160a01b038581168252841660208201526040810183905260806060820181905260009061138490830184610e44565b9695505050505050565b6000602082840312156113a057600080fd5b8151610e3d81610e0a56fea26469706673582212204943eb4999e182c1dd426fe44b8fce6794c015614c4d8487e9cca8b44a5d78ff64736f6c63430008090033",
  "linkReferences": {},
  "deployedLinkReferences": {}
}