{
  "_format": "hh-sol-artifact-1",
  "contractName": "SubtitleSystem",
  "sourceName": "contracts/SubtitleSystem.sol",
  "abi": [
    {
      "inputs": [
        {
          "internalType": "address",
          "name": "owner",
          "type": "address"
        }
      ],
      "stateMutability": "nonpayable",
      "type": "constructor"
    },
    {
      "anonymous": false,
      "inputs": [
        {
          "indexed": false,
          "internalType": "uint256",
          "name": "applyId",
          "type": "uint256"
        }
      ],
      "name": "ApplicationCancel",
      "type": "event"
    },
    {
      "anonymous": false,
      "inputs": [
        {
          "indexed": false,
          "internalType": "uint256",
          "name": "applyId",
          "type": "uint256"
        },
        {
          "indexed": false,
          "internalType": "uint256",
          "name": "amount",
          "type": "uint256"
        },
        {
          "indexed": false,
          "internalType": "uint256",
          "name": "deadline",
          "type": "uint256"
        }
      ],
      "name": "ApplicationRecover",
      "type": "event"
    },
    {
      "anonymous": false,
      "inputs": [
        {
          "indexed": false,
          "internalType": "address",
          "name": "applicant",
          "type": "address"
        },
        {
          "indexed": false,
          "internalType": "address",
          "name": "platform",
          "type": "address"
        },
        {
          "indexed": false,
          "internalType": "uint256",
          "name": "videoId",
          "type": "uint256"
        },
        {
          "indexed": false,
          "internalType": "uint8",
          "name": "strategy",
          "type": "uint8"
        },
        {
          "indexed": false,
          "internalType": "uint256",
          "name": "amount",
          "type": "uint256"
        },
        {
          "indexed": false,
          "internalType": "uint16",
          "name": "language",
          "type": "uint16"
        },
        {
          "indexed": false,
          "internalType": "uint256",
          "name": "deadline",
          "type": "uint256"
        },
        {
          "indexed": false,
          "internalType": "uint256",
          "name": "applyId",
          "type": "uint256"
        },
        {
          "indexed": false,
          "internalType": "string",
          "name": "src",
          "type": "string"
        }
      ],
      "name": "ApplicationSubmit",
      "type": "event"
    },
    {
      "anonymous": false,
      "inputs": [
        {
          "indexed": true,
          "internalType": "address[]",
          "name": "opeators",
          "type": "address[]"
        },
        {
          "indexed": true,
          "internalType": "bool",
          "name": "state",
          "type": "bool"
        }
      ],
      "name": "OpeatorsStateChange",
      "type": "event"
    },
    {
      "anonymous": false,
      "inputs": [
        {
          "indexed": true,
          "internalType": "address",
          "name": "previousOwner",
          "type": "address"
        },
        {
          "indexed": true,
          "internalType": "address",
          "name": "newOwner",
          "type": "address"
        }
      ],
      "name": "OwnershipTransferred",
      "type": "event"
    },
    {
      "anonymous": false,
      "inputs": [
        {
          "indexed": false,
          "internalType": "address",
          "name": "platform",
          "type": "address"
        },
        {
          "indexed": false,
          "internalType": "uint256",
          "name": "id",
          "type": "uint256"
        },
        {
          "indexed": false,
          "internalType": "string",
          "name": "name",
          "type": "string"
        },
        {
          "indexed": false,
          "internalType": "string",
          "name": "symbol",
          "type": "string"
        },
        {
          "indexed": false,
          "internalType": "uint16",
          "name": "rate1",
          "type": "uint16"
        },
        {
          "indexed": false,
          "internalType": "uint16",
          "name": "rate2",
          "type": "uint16"
        }
      ],
      "name": "PlatformJoin",
      "type": "event"
    },
    {
      "anonymous": false,
      "inputs": [
        {
          "indexed": false,
          "internalType": "address",
          "name": "platform",
          "type": "address"
        },
        {
          "indexed": false,
          "internalType": "uint16",
          "name": "rate1",
          "type": "uint16"
        },
        {
          "indexed": false,
          "internalType": "uint16",
          "name": "rate2",
          "type": "uint16"
        }
      ],
      "name": "PlatformSetRate",
      "type": "event"
    },
    {
      "anonymous": false,
      "inputs": [
        {
          "indexed": false,
          "internalType": "string",
          "name": "language",
          "type": "string"
        },
        {
          "indexed": false,
          "internalType": "uint16",
          "name": "id",
          "type": "uint16"
        }
      ],
      "name": "RegisterLanguage",
      "type": "event"
    },
    {
      "anonymous": false,
      "inputs": [
        {
          "indexed": false,
          "internalType": "uint256",
          "name": "subtitleId",
          "type": "uint256"
        },
        {
          "indexed": false,
          "internalType": "address",
          "name": "evaluator",
          "type": "address"
        },
        {
          "indexed": false,
          "internalType": "uint8",
          "name": "attitude",
          "type": "uint8"
        }
      ],
      "name": "SubitlteGetEvaluation",
      "type": "event"
    },
    {
      "anonymous": false,
      "inputs": [
        {
          "indexed": false,
          "internalType": "uint256",
          "name": "subtitleId",
          "type": "uint256"
        },
        {
          "indexed": false,
          "internalType": "uint8",
          "name": "state",
          "type": "uint8"
        },
        {
          "indexed": false,
          "internalType": "uint256",
          "name": "applyId",
          "type": "uint256"
        }
      ],
      "name": "SubtilteStateChange",
      "type": "event"
    },
    {
      "anonymous": false,
      "inputs": [
        {
          "indexed": false,
          "internalType": "address",
          "name": "platform",
          "type": "address"
        },
        {
          "indexed": false,
          "internalType": "uint256[]",
          "name": "subtitleId",
          "type": "uint256[]"
        },
        {
          "indexed": false,
          "internalType": "uint256[]",
          "name": "counts",
          "type": "uint256[]"
        }
      ],
      "name": "SubtitleCountsUpdate",
      "type": "event"
    },
    {
      "anonymous": false,
      "inputs": [
        {
          "indexed": false,
          "internalType": "address",
          "name": "newAccess",
          "type": "address"
        }
      ],
      "name": "SystemSetAccess",
      "type": "event"
    },
    {
      "anonymous": false,
      "inputs": [
        {
          "indexed": false,
          "internalType": "address",
          "name": "newAudit",
          "type": "address"
        }
      ],
      "name": "SystemSetAudit",
      "type": "event"
    },
    {
      "anonymous": false,
      "inputs": [
        {
          "indexed": false,
          "internalType": "address",
          "name": "newDetection",
          "type": "address"
        }
      ],
      "name": "SystemSetDetection",
      "type": "event"
    },
    {
      "anonymous": false,
      "inputs": [
        {
          "indexed": false,
          "internalType": "uint256",
          "name": "time",
          "type": "uint256"
        }
      ],
      "name": "SystemSetLockUpTime",
      "type": "event"
    },
    {
      "anonymous": false,
      "inputs": [
        {
          "indexed": false,
          "internalType": "uint8",
          "name": "strategyId",
          "type": "uint8"
        },
        {
          "indexed": false,
          "internalType": "address",
          "name": "strategy",
          "type": "address"
        },
        {
          "indexed": false,
          "internalType": "string",
          "name": "notes",
          "type": "string"
        }
      ],
      "name": "SystemSetSettlement",
      "type": "event"
    },
    {
      "anonymous": false,
      "inputs": [
        {
          "indexed": false,
          "internalType": "address",
          "name": "token",
          "type": "address"
        }
      ],
      "name": "SystemSetSubtitleToken",
      "type": "event"
    },
    {
      "anonymous": false,
      "inputs": [
        {
          "indexed": false,
          "internalType": "address",
          "name": "token",
          "type": "address"
        }
      ],
      "name": "SystemSetVideoToken",
      "type": "event"
    },
    {
      "anonymous": false,
      "inputs": [
        {
          "indexed": false,
          "internalType": "address",
          "name": "token",
          "type": "address"
        }
      ],
      "name": "SystemSetZimuToken",
      "type": "event"
    },
    {
      "anonymous": false,
      "inputs": [
        {
          "indexed": false,
          "internalType": "address",
          "name": "usr",
          "type": "address"
        },
        {
          "indexed": false,
          "internalType": "int256",
          "name": "reputationSpread",
          "type": "int256"
        },
        {
          "indexed": false,
          "internalType": "int256",
          "name": "tokenSpread",
          "type": "int256"
        }
      ],
      "name": "UserInfoUpdate",
      "type": "event"
    },
    {
      "anonymous": false,
      "inputs": [
        {
          "indexed": false,
          "internalType": "address",
          "name": "user",
          "type": "address"
        },
        {
          "indexed": false,
          "internalType": "uint256",
          "name": "reputation",
          "type": "uint256"
        },
        {
          "indexed": false,
          "internalType": "int256",
          "name": "deposit",
          "type": "int256"
        }
      ],
      "name": "UserJoin",
      "type": "event"
    },
    {
      "anonymous": false,
      "inputs": [
        {
          "indexed": false,
          "internalType": "address",
          "name": "user",
          "type": "address"
        },
        {
          "indexed": false,
          "internalType": "address",
          "name": "platform",
          "type": "address"
        },
        {
          "indexed": false,
          "internalType": "uint256",
          "name": "day",
          "type": "uint256"
        },
        {
          "indexed": false,
          "internalType": "int256",
          "name": "reward",
          "type": "int256"
        }
      ],
      "name": "UserLockRewardUpdate",
      "type": "event"
    },
    {
      "anonymous": false,
      "inputs": [
        {
          "indexed": false,
          "internalType": "address",
          "name": "user",
          "type": "address"
        },
        {
          "indexed": false,
          "internalType": "address",
          "name": "platform",
          "type": "address"
        },
        {
          "indexed": false,
          "internalType": "uint256[]",
          "name": "day",
          "type": "uint256[]"
        },
        {
          "indexed": false,
          "internalType": "uint256",
          "name": "all",
          "type": "uint256"
        }
      ],
      "name": "UserWithdraw",
      "type": "event"
    },
    {
      "anonymous": false,
      "inputs": [
        {
          "indexed": false,
          "internalType": "address",
          "name": "platform",
          "type": "address"
        },
        {
          "indexed": false,
          "internalType": "uint256[]",
          "name": "id",
          "type": "uint256[]"
        },
        {
          "indexed": false,
          "internalType": "uint256[]",
          "name": "counts",
          "type": "uint256[]"
        }
      ],
      "name": "VideoCountsUpdate",
      "type": "event"
    },
    {
      "anonymous": false,
      "inputs": [
        {
          "indexed": false,
          "internalType": "address",
          "name": "platform",
          "type": "address"
        },
        {
          "indexed": false,
          "internalType": "uint256",
          "name": "realId",
          "type": "uint256"
        },
        {
          "indexed": false,
          "internalType": "uint256",
          "name": "id",
          "type": "uint256"
        },
        {
          "indexed": false,
          "internalType": "string",
          "name": "symbol",
          "type": "string"
        },
        {
          "indexed": false,
          "internalType": "address",
          "name": "creator",
          "type": "address"
        }
      ],
      "name": "VideoCreate",
      "type": "event"
    },
    {
      "anonymous": false,
      "inputs": [
        {
          "indexed": false,
          "internalType": "uint256",
          "name": "videoId",
          "type": "uint256"
        },
        {
          "indexed": false,
          "internalType": "uint256",
          "name": "unsettled",
          "type": "uint256"
        },
        {
          "indexed": false,
          "internalType": "uint256",
          "name": "surplus",
          "type": "uint256"
        }
      ],
      "name": "VideoPreExtract",
      "type": "event"
    },
    {
      "inputs": [],
      "name": "Despoit",
      "outputs": [
        {
          "internalType": "uint256",
          "name": "",
          "type": "uint256"
        }
      ],
      "stateMutability": "view",
      "type": "function"
    },
    {
      "inputs": [],
      "name": "accessStrategy",
      "outputs": [
        {
          "internalType": "contract IAccessStrategy",
          "name": "",
          "type": "address"
        }
      ],
      "stateMutability": "view",
      "type": "function"
    },
    {
      "inputs": [],
      "name": "auditStrategy",
      "outputs": [
        {
          "internalType": "contract IAuditStrategy",
          "name": "",
          "type": "address"
        }
      ],
      "stateMutability": "view",
      "type": "function"
    },
    {
      "inputs": [
        {
          "internalType": "uint256",
          "name": "applyId",
          "type": "uint256"
        }
      ],
      "name": "cancel",
      "outputs": [],
      "stateMutability": "nonpayable",
      "type": "function"
    },
    {
      "inputs": [
        {
          "internalType": "uint256",
          "name": "id",
          "type": "uint256"
        },
        {
          "internalType": "string",
          "name": "symbol",
          "type": "string"
        },
        {
          "internalType": "address",
          "name": "creator",
          "type": "address"
        }
      ],
      "name": "createVideo",
      "outputs": [
        {
          "internalType": "uint256",
          "name": "",
          "type": "uint256"
        }
      ],
      "stateMutability": "nonpayable",
      "type": "function"
    },
    {
      "inputs": [],
      "name": "detectionStrategy",
      "outputs": [
        {
          "internalType": "contract IDetectionStrategy",
          "name": "",
          "type": "address"
        }
      ],
      "stateMutability": "view",
      "type": "function"
    },
    {
      "inputs": [
        {
          "internalType": "uint256",
          "name": "subtitleId",
          "type": "uint256"
        },
        {
          "internalType": "uint8",
          "name": "attitude",
          "type": "uint8"
        }
      ],
      "name": "evaluateSubtitle",
      "outputs": [],
      "stateMutability": "nonpayable",
      "type": "function"
    },
    {
      "inputs": [
        {
          "internalType": "uint16",
          "name": "languageId",
          "type": "uint16"
        }
      ],
      "name": "getLanguageType",
      "outputs": [
        {
          "internalType": "string",
          "name": "",
          "type": "string"
        }
      ],
      "stateMutability": "view",
      "type": "function"
    },
    {
      "inputs": [
        {
          "internalType": "uint256",
          "name": "subtitleId",
          "type": "uint256"
        }
      ],
      "name": "getSubtitleAuditInfo",
      "outputs": [
        {
          "internalType": "uint256",
          "name": "",
          "type": "uint256"
        },
        {
          "internalType": "uint256",
          "name": "",
          "type": "uint256"
        },
        {
          "internalType": "uint256",
          "name": "",
          "type": "uint256"
        },
        {
          "internalType": "uint256",
          "name": "",
          "type": "uint256"
        },
        {
          "internalType": "uint256",
          "name": "",
          "type": "uint256"
        }
      ],
      "stateMutability": "view",
      "type": "function"
    },
    {
      "inputs": [
        {
          "internalType": "address",
          "name": "usr",
          "type": "address"
        }
      ],
      "name": "getUserBaseInfo",
      "outputs": [
        {
          "internalType": "uint256",
          "name": "",
          "type": "uint256"
        },
        {
          "internalType": "int256",
          "name": "",
          "type": "int256"
        }
      ],
      "stateMutability": "view",
      "type": "function"
    },
    {
      "inputs": [
        {
          "internalType": "address",
          "name": "usr",
          "type": "address"
        },
        {
          "internalType": "address",
          "name": "platform",
          "type": "address"
        },
        {
          "internalType": "uint256",
          "name": "day",
          "type": "uint256"
        }
      ],
      "name": "getUserLockReward",
      "outputs": [
        {
          "internalType": "uint256",
          "name": "",
          "type": "uint256"
        }
      ],
      "stateMutability": "view",
      "type": "function"
    },
    {
      "inputs": [
        {
          "internalType": "string",
          "name": "",
          "type": "string"
        }
      ],
      "name": "languages",
      "outputs": [
        {
          "internalType": "uint16",
          "name": "",
          "type": "uint16"
        }
      ],
      "stateMutability": "view",
      "type": "function"
    },
    {
      "inputs": [],
      "name": "lockUpTime",
      "outputs": [
        {
          "internalType": "uint256",
          "name": "",
          "type": "uint256"
        }
      ],
      "stateMutability": "view",
      "type": "function"
    },
    {
      "inputs": [],
      "name": "owner",
      "outputs": [
        {
          "internalType": "address",
          "name": "",
          "type": "address"
        }
      ],
      "stateMutability": "view",
      "type": "function"
    },
    {
      "inputs": [],
      "name": "penalty",
      "outputs": [
        {
          "internalType": "uint256",
          "name": "",
          "type": "uint256"
        }
      ],
      "stateMutability": "view",
      "type": "function"
    },
    {
      "inputs": [
        {
          "internalType": "uint16",
          "name": "rate1",
          "type": "uint16"
        },
        {
          "internalType": "uint16",
          "name": "rate2",
          "type": "uint16"
        }
      ],
      "name": "platformRate",
      "outputs": [
        {
          "internalType": "uint16",
          "name": "",
          "type": "uint16"
        },
        {
          "internalType": "uint16",
          "name": "",
          "type": "uint16"
        }
      ],
      "stateMutability": "nonpayable",
      "type": "function"
    },
    {
      "inputs": [
        {
          "internalType": "address",
          "name": "",
          "type": "address"
        }
      ],
      "name": "platforms",
      "outputs": [
        {
          "internalType": "string",
          "name": "name",
          "type": "string"
        },
        {
          "internalType": "string",
          "name": "symbol",
          "type": "string"
        },
        {
          "internalType": "uint256",
          "name": "platformId",
          "type": "uint256"
        },
        {
          "internalType": "uint16",
          "name": "rateCountsToProfit",
          "type": "uint16"
        },
        {
          "internalType": "uint16",
          "name": "rateAuditorDivide",
          "type": "uint16"
        }
      ],
      "stateMutability": "view",
      "type": "function"
    },
    {
      "inputs": [
        {
          "internalType": "address",
          "name": "platfrom",
          "type": "address"
        },
        {
          "internalType": "string",
          "name": "name",
          "type": "string"
        },
        {
          "internalType": "string",
          "name": "symbol",
          "type": "string"
        },
        {
          "internalType": "uint16",
          "name": "rate1",
          "type": "uint16"
        },
        {
          "internalType": "uint16",
          "name": "rate2",
          "type": "uint16"
        }
      ],
      "name": "platfromJoin",
      "outputs": [
        {
          "internalType": "uint256",
          "name": "",
          "type": "uint256"
        }
      ],
      "stateMutability": "nonpayable",
      "type": "function"
    },
    {
      "inputs": [
        {
          "internalType": "address",
          "name": "platform",
          "type": "address"
        },
        {
          "internalType": "address",
          "name": "to",
          "type": "address"
        },
        {
          "internalType": "uint256",
          "name": "amount",
          "type": "uint256"
        }
      ],
      "name": "preDivide",
      "outputs": [],
      "stateMutability": "nonpayable",
      "type": "function"
    },
    {
      "inputs": [
        {
          "internalType": "address",
          "name": "platform",
          "type": "address"
        },
        {
          "internalType": "address[]",
          "name": "to",
          "type": "address[]"
        },
        {
          "internalType": "uint256",
          "name": "amount",
          "type": "uint256"
        }
      ],
      "name": "preDivideBatch",
      "outputs": [],
      "stateMutability": "nonpayable",
      "type": "function"
    },
    {
      "inputs": [
        {
          "internalType": "uint256",
          "name": "applyId",
          "type": "uint256"
        }
      ],
      "name": "preExtract0",
      "outputs": [],
      "stateMutability": "nonpayable",
      "type": "function"
    },
    {
      "inputs": [
        {
          "internalType": "uint256",
          "name": "videoId",
          "type": "uint256"
        }
      ],
      "name": "preExtractOther",
      "outputs": [
        {
          "internalType": "uint256",
          "name": "",
          "type": "uint256"
        }
      ],
      "stateMutability": "nonpayable",
      "type": "function"
    },
    {
      "inputs": [
        {
          "internalType": "uint256",
          "name": "applyId",
          "type": "uint256"
        },
        {
          "internalType": "uint256",
          "name": "amount",
          "type": "uint256"
        },
        {
          "internalType": "uint256",
          "name": "deadline",
          "type": "uint256"
        }
      ],
      "name": "recover",
      "outputs": [],
      "stateMutability": "nonpayable",
      "type": "function"
    },
    {
      "inputs": [
        {
          "internalType": "string[]",
          "name": "language",
          "type": "string[]"
        }
      ],
      "name": "registerLanguage",
      "outputs": [
        {
          "internalType": "uint16",
          "name": "",
          "type": "uint16"
        }
      ],
      "stateMutability": "nonpayable",
      "type": "function"
    },
    {
      "inputs": [
        {
          "internalType": "contract IAccessStrategy",
          "name": "newAccess",
          "type": "address"
        }
      ],
      "name": "setAccessStrategy",
      "outputs": [],
      "stateMutability": "nonpayable",
      "type": "function"
    },
    {
      "inputs": [
        {
          "internalType": "contract IAuditStrategy",
          "name": "newAudit",
          "type": "address"
        }
      ],
      "name": "setAuditStrategy",
      "outputs": [],
      "stateMutability": "nonpayable",
      "type": "function"
    },
    {
      "inputs": [
        {
          "internalType": "contract IDetectionStrategy",
          "name": "newDetection",
          "type": "address"
        }
      ],
      "name": "setDetectionStrategy",
      "outputs": [],
      "stateMutability": "nonpayable",
      "type": "function"
    },
    {
      "inputs": [
        {
          "internalType": "uint256",
          "name": "time",
          "type": "uint256"
        }
      ],
      "name": "setLockUpTime",
      "outputs": [],
      "stateMutability": "nonpayable",
      "type": "function"
    },
    {
      "inputs": [
        {
          "internalType": "address[]",
          "name": "operators",
          "type": "address[]"
        },
        {
          "internalType": "bool",
          "name": "state",
          "type": "bool"
        }
      ],
      "name": "setOperators",
      "outputs": [],
      "stateMutability": "nonpayable",
      "type": "function"
    },
    {
      "inputs": [
        {
          "internalType": "uint8",
          "name": "strategyId",
          "type": "uint8"
        },
        {
          "internalType": "address",
          "name": "strategy",
          "type": "address"
        },
        {
          "internalType": "string",
          "name": "notes",
          "type": "string"
        }
      ],
      "name": "setSettlementStrategy",
      "outputs": [],
      "stateMutability": "nonpayable",
      "type": "function"
    },
    {
      "inputs": [
        {
          "internalType": "address",
          "name": "token",
          "type": "address"
        }
      ],
      "name": "setSubtitleToken",
      "outputs": [],
      "stateMutability": "nonpayable",
      "type": "function"
    },
    {
      "inputs": [
        {
          "internalType": "address",
          "name": "token",
          "type": "address"
        }
      ],
      "name": "setVideoToken",
      "outputs": [],
      "stateMutability": "nonpayable",
      "type": "function"
    },
    {
      "inputs": [
        {
          "internalType": "address",
          "name": "token",
          "type": "address"
        }
      ],
      "name": "setZimuToken",
      "outputs": [],
      "stateMutability": "nonpayable",
      "type": "function"
    },
    {
      "inputs": [
        {
          "internalType": "uint8",
          "name": "",
          "type": "uint8"
        }
      ],
      "name": "settlementStrategy",
      "outputs": [
        {
          "internalType": "address",
          "name": "strategy",
          "type": "address"
        },
        {
          "internalType": "string",
          "name": "notes",
          "type": "string"
        }
      ],
      "stateMutability": "view",
      "type": "function"
    },
    {
      "inputs": [
        {
          "internalType": "address",
          "name": "platform",
          "type": "address"
        },
        {
          "internalType": "uint256",
          "name": "videoId",
          "type": "uint256"
        },
        {
          "internalType": "uint8",
          "name": "strategy",
          "type": "uint8"
        },
        {
          "internalType": "uint256",
          "name": "amount",
          "type": "uint256"
        },
        {
          "internalType": "uint16",
          "name": "language",
          "type": "uint16"
        },
        {
          "internalType": "uint256",
          "name": "deadline",
          "type": "uint256"
        },
        {
          "internalType": "string",
          "name": "source",
          "type": "string"
        }
      ],
      "name": "submitApplication",
      "outputs": [
        {
          "internalType": "uint256",
          "name": "",
          "type": "uint256"
        }
      ],
      "stateMutability": "nonpayable",
      "type": "function"
    },
    {
      "inputs": [
        {
          "internalType": "uint256",
          "name": "",
          "type": "uint256"
        }
      ],
      "name": "subtitleNFT",
      "outputs": [
        {
          "internalType": "uint256",
          "name": "applyId",
          "type": "uint256"
        },
        {
          "internalType": "uint8",
          "name": "state",
          "type": "uint8"
        },
        {
          "internalType": "uint256",
          "name": "stateChangeTime",
          "type": "uint256"
        }
      ],
      "stateMutability": "view",
      "type": "function"
    },
    {
      "inputs": [],
      "name": "subtitleToken",
      "outputs": [
        {
          "internalType": "address",
          "name": "",
          "type": "address"
        }
      ],
      "stateMutability": "view",
      "type": "function"
    },
    {
      "inputs": [],
      "name": "totalApplyNumber",
      "outputs": [
        {
          "internalType": "uint256",
          "name": "",
          "type": "uint256"
        }
      ],
      "stateMutability": "view",
      "type": "function"
    },
    {
      "inputs": [
        {
          "internalType": "uint256",
          "name": "",
          "type": "uint256"
        }
      ],
      "name": "totalApplys",
      "outputs": [
        {
          "internalType": "address",
          "name": "applicant",
          "type": "address"
        },
        {
          "internalType": "address",
          "name": "platform",
          "type": "address"
        },
        {
          "internalType": "uint256",
          "name": "videoId",
          "type": "uint256"
        },
        {
          "internalType": "string",
          "name": "source",
          "type": "string"
        },
        {
          "internalType": "uint8",
          "name": "strategy",
          "type": "uint8"
        },
        {
          "internalType": "uint256",
          "name": "amount",
          "type": "uint256"
        },
        {
          "internalType": "uint16",
          "name": "language",
          "type": "uint16"
        },
        {
          "internalType": "uint256",
          "name": "adopted",
          "type": "uint256"
        },
        {
          "internalType": "uint256",
          "name": "deadline",
          "type": "uint256"
        }
      ],
      "stateMutability": "view",
      "type": "function"
    },
    {
      "inputs": [],
      "name": "totalPlatforms",
      "outputs": [
        {
          "internalType": "uint256",
          "name": "",
          "type": "uint256"
        }
      ],
      "stateMutability": "view",
      "type": "function"
    },
    {
      "inputs": [],
      "name": "totalVideoNumber",
      "outputs": [
        {
          "internalType": "uint256",
          "name": "",
          "type": "uint256"
        }
      ],
      "stateMutability": "view",
      "type": "function"
    },
    {
      "inputs": [
        {
          "internalType": "address",
          "name": "newOwner",
          "type": "address"
        }
      ],
      "name": "transferOwnership",
      "outputs": [],
      "stateMutability": "nonpayable",
      "type": "function"
    },
    {
      "inputs": [
        {
          "internalType": "uint256[]",
          "name": "id",
          "type": "uint256[]"
        },
        {
          "internalType": "uint256[]",
          "name": "ss",
          "type": "uint256[]"
        }
      ],
      "name": "updateUsageCounts",
      "outputs": [],
      "stateMutability": "nonpayable",
      "type": "function"
    },
    {
      "inputs": [
        {
          "internalType": "uint256[]",
          "name": "id",
          "type": "uint256[]"
        },
        {
          "internalType": "uint256[]",
          "name": "vs",
          "type": "uint256[]"
        }
      ],
      "name": "updateViewCounts",
      "outputs": [],
      "stateMutability": "nonpayable",
      "type": "function"
    },
    {
      "inputs": [
        {
          "internalType": "uint256",
          "name": "applyId",
          "type": "uint256"
        },
        {
          "internalType": "string",
          "name": "cid",
          "type": "string"
        },
        {
          "internalType": "uint16",
          "name": "languageId",
          "type": "uint16"
        },
        {
          "internalType": "uint256",
          "name": "fingerprint",
          "type": "uint256"
        }
      ],
      "name": "uploadSubtitle",
      "outputs": [
        {
          "internalType": "uint256",
          "name": "",
          "type": "uint256"
        }
      ],
      "stateMutability": "nonpayable",
      "type": "function"
    },
    {
      "inputs": [
        {
          "internalType": "address",
          "name": "usr",
          "type": "address"
        },
        {
          "internalType": "uint256",
          "name": "despoit",
          "type": "uint256"
        }
      ],
      "name": "userJoin",
      "outputs": [],
      "stateMutability": "nonpayable",
      "type": "function"
    },
    {
      "inputs": [],
      "name": "videoToken",
      "outputs": [
        {
          "internalType": "address",
          "name": "",
          "type": "address"
        }
      ],
      "stateMutability": "view",
      "type": "function"
    },
    {
      "inputs": [
        {
          "internalType": "uint256",
          "name": "",
          "type": "uint256"
        }
      ],
      "name": "videos",
      "outputs": [
        {
          "internalType": "address",
          "name": "platform",
          "type": "address"
        },
        {
          "internalType": "uint256",
          "name": "id",
          "type": "uint256"
        },
        {
          "internalType": "string",
          "name": "symbol",
          "type": "string"
        },
        {
          "internalType": "address",
          "name": "creator",
          "type": "address"
        },
        {
          "internalType": "uint256",
          "name": "totalViewCouts",
          "type": "uint256"
        },
        {
          "internalType": "uint256",
          "name": "unsettled",
          "type": "uint256"
        }
      ],
      "stateMutability": "view",
      "type": "function"
    },
    {
      "inputs": [
        {
          "internalType": "address",
          "name": "platform",
          "type": "address"
        },
        {
          "internalType": "uint256[]",
          "name": "day",
          "type": "uint256[]"
        }
      ],
      "name": "withdraw",
      "outputs": [
        {
          "internalType": "uint256",
          "name": "",
          "type": "uint256"
        }
      ],
      "stateMutability": "nonpayable",
      "type": "function"
    },
    {
      "inputs": [
        {
          "internalType": "uint256",
          "name": "amount",
          "type": "uint256"
        }
      ],
      "name": "withdrawDeposit",
      "outputs": [
        {
          "internalType": "uint256",
          "name": "",
          "type": "uint256"
        }
      ],
      "stateMutability": "nonpayable",
      "type": "function"
    },
    {
      "inputs": [],
      "name": "zimuToken",
      "outputs": [
        {
          "internalType": "address",
          "name": "",
          "type": "address"
        }
      ],
      "stateMutability": "view",
      "type": "function"
    }
  ],
  "bytecode": "0x60806040523480156200001157600080fd5b5060405162005ce238038062005ce28339810160408190526200003491620001d7565b6200003f81620000e1565b600c60209081527f13649b2456f1b42fef0f0040b3aaeabcd21a76a0f3f5defd4f583839455116eb805463ffff0000191663028f00001790556009805460018101825560009190915260408051808201909152600780825266111959985d5b1d60ca1b91909301908152620000d9927f6e1540171b6c0c960b71a7020d9f60077f6af931a8bbf590da0223dacf75c7af9092019162000131565b505062000246565b600080546001600160a01b038381166001600160a01b0319831681178455604051919092169283917f8be0079c531659141344cd1fd0a4f28419497f9722a3daafe3b4186f6b6457e09190a35050565b8280546200013f9062000209565b90600052602060002090601f016020900481019282620001635760008555620001ae565b82601f106200017e57805160ff1916838001178555620001ae565b82800160010185558215620001ae579182015b82811115620001ae57825182559160200191906001019062000191565b50620001bc929150620001c0565b5090565b5b80821115620001bc5760008155600101620001c1565b600060208284031215620001ea57600080fd5b81516001600160a01b03811681146200020257600080fd5b9392505050565b600181811c908216806200021e57607f821691505b602082108114156200024057634e487b7160e01b600052602260045260246000fd5b50919050565b615a8c80620002566000396000f3fe608060405234801561001057600080fd5b50600436106102615760003560e01c80638b2280061161014d5780638b228006146105045780638da5cb5b146105335780638de728c31461054457806394fec79f14610557578063a2b8a3d914610560578063a3111bdb14610581578063a5c25ad114610594578063a93e5cef146105b4578063b8fcef8b146105c7578063b953324a146105d0578063bedb0419146105f8578063c0cdec8e14610601578063c354900a1461060a578063d13133841461061d578063d680364714610641578063e4e505ee14610687578063e6821bf51461069a578063e759dcd0146106bf578063e8fb5d22146106d2578063e94a61ae146106e5578063ea05657c146106f8578063ea80eae41461070b578063f2fde38b1461071e578063f579622b14610731578063fa3f856714610744578063fb74121a1461075757600080fd5b80630275dc5d14610266578063030df1d71461027b57806308b79e141461028e5780630edd2ffc146102b9578063167624ec146102d05780631cd0af28146102e35780631f53ea4b14610303578063264859cb1461031657806329d2f450146103295780632a3ce1a41461033c5780632df685931461036a5780632fdd215e1461037d57806333289a46146103905780633f2cfd32146103a357806340e58ee5146103ac57806358bc16ee146103bf5780635aaf6287146104005780635deea7461461044457806360a5095314610457578063621208d91461046a57806373bb6ac01461047d57806373e01efb1461049057806376d1fd49146104cb5780638293744b146104de57806386497b7e146104f1575b600080fd5b6102796102743660046148f3565b61076a565b005b610279610289366004614921565b610949565b6102a161029c366004614a16565b6109ef565b60405161ffff90911681526020015b60405180910390f35b6102c260035481565b6040519081526020016102b0565b6102c26102de366004614acb565b610b88565b6013546102f6906001600160a01b031681565b6040516102b09190614b25565b610279610311366004614b48565b610bd4565b610279610324366004614921565b610d1f565b600d546102f6906001600160a01b031681565b61034f61034a366004614bc0565b610dba565b6040805161ffff9384168152929091166020830152016102b0565b6102c2610378366004614bf3565b610f04565b6102c261038b3660046148f3565b61111d565b6102c261039e3660046148f3565b6112c2565b6102c260195481565b6102796103ba3660046148f3565b6113d7565b6103f16103cd3660046148f3565b600e60205260009081526040902080546001820154600290920154909160ff169083565b6040516102b093929190614c8a565b6102c261040e366004614ca3565b6001600160a01b039283166000908152600a60209081526040808320949095168252600290930183528381209181529152205490565b6006546102f6906001600160a01b031681565b610279610465366004614921565b611585565b610279610478366004614ca3565b611620565b61027961048b366004614ce4565b61164d565b6104a361049e3660046148f3565b611897565b604080519586526020860194909452928401919091526060830152608082015260a0016102b0565b6012546102f6906001600160a01b031681565b6102c26104ec366004614d7a565b611962565b6011546102f6906001600160a01b031681565b6102a1610512366004614dc9565b805160208183018101805160088252928201919093012091525461ffff1681565b6000546001600160a01b03166102f6565b610279610552366004614e69565b611d11565b6102c260145481565b61057361056e366004614ec1565b611d3e565b6040516102b0929190614f36565b61027961058f366004614f68565b611ded565b6105a76105a2366004614fae565b611ec4565b6040516102b09190614fc9565b6102c26105c2366004614fdc565b611f77565b6102c2600b5481565b6105e36105de3660046148f3565b612535565b6040516102b09998979695949392919061506b565b6102c260165481565b6102c260025481565b610279610618366004614921565b61261b565b61063061062b366004614921565b6126b6565b6040516102b09594939291906150d4565b61067261064f366004614921565b6001600160a01b03166000908152600a6020526040902080546001909101549091565b604080519283526020830191909152016102b0565b610279610695366004614921565b6127fd565b6106ad6106a83660046148f3565b612898565b6040516102b09695949392919061511c565b6102796106cd366004615161565b61296b565b6102796106e036600461518d565b612ab2565b6007546102f6906001600160a01b031681565b6102796107063660046151b9565b612bdb565b610279610719366004614921565b612eee565b61027961072c366004614921565b612f89565b61027961073f3660046148f3565b613024565b6102796107523660046151b9565b6130a3565b6102c2610765366004615212565b613256565b6000818152601a602052604090206004015460ff16156107a55760405162461bcd60e51b815260040161079c90615270565b60405180910390fd5b6000818152601a602081815260408084206002810154855260178352818520547fa31547ce6245cdb9ecea19cf8c7eb9f5974025bb4075011409251ae855b30aed54600d5496889052949093526008015490516331a9108f60e11b81526001600160a01b039283169493831693631899ca5f93879387939290911691636352211e916108379160040190815260200190565b60206040518083038186803b15801561084f57600080fd5b505afa158015610863573d6000803e3d6000fd5b505050506040513d601f19601f82011682018060405250810190610887919061528d565b6001600160a01b0386166000908152600c602090815260408083206003908101548b8552601a8452828520600801548552600e909352818420915160e089901b6001600160e01b03191681526108f2979695949362010000900461ffff1692909101906004016152f3565b602060405180830381600087803b15801561090c57600080fd5b505af1158015610920573d6000803e3d6000fd5b505050506040513d601f19601f820116820180604052508101906109449190615342565b505050565b6000546001600160a01b031633146109735760405162461bcd60e51b815260040161079c9061535b565b6001600160a01b0381166109995760405162461bcd60e51b815260040161079c90615390565b600680546001600160a01b0319166001600160a01b0383161790556040517f08c317d71a27e3dfca204d6ca65032977890b64d0bb25a1f9dfbec5b031013c8906109e4908390614b25565b60405180910390a150565b6000805b8251811015610b72576009838281518110610a1057610a106153ad565b60209081029190910181015182546001810184556000938452928290208151610a429491909101929190910190614820565b506008838281518110610a5757610a576153ad565b6020026020010151604051610a6c91906153c3565b9081526040519081900360200190205461ffff1615610a9d5760405162461bcd60e51b815260040161079c906153df565b600954610aac90600190615412565b6008848381518110610ac057610ac06153ad565b6020026020010151604051610ad591906153c3565b908152602001604051809103902060006101000a81548161ffff021916908361ffff1602179055507f90de228dee0605259423a988ce153c9485cc6325b472e0d4900cc77e43229462838281518110610b3057610b306153ad565b60200260200101516001600980549050610b4a9190615412565b604051610b58929190615429565b60405180910390a180610b6a8161544f565b9150506109f3565b50600954610b8290600190615412565b92915050565b336000908152600c602052604081206003015461ffff16610bbb5760405162461bcd60e51b815260040161079c90615390565b6000610bc9338686866134f6565b9150505b9392505050565b6000546001600160a01b03163314610bfe5760405162461bcd60e51b815260040161079c9061535b565b6001600160a01b038216610c245760405162461bcd60e51b815260040161079c90615390565b60ff8316600090815260156020908152604090912080546001600160a01b0319166001600160a01b0385161781558251610c6692600190920191840190614820565b5060ff83166000908152601560205260409020546001600160a01b031615610cb95760ff83166000908152601560209081526040808320546001600160a01b0316835260019091529020805460ff191690555b6001600160a01b038216600090815260016020819052604091829020805460ff19169091179055517ffe7a72823ef2858b4f44a3a728a93b18a9a2bd480962708b9568ac4a5653b8ee90610d129085908590859061546a565b60405180910390a1505050565b6000546001600160a01b03163314610d495760405162461bcd60e51b815260040161079c9061535b565b6001600160a01b038116610d6f5760405162461bcd60e51b815260040161079c90615390565b601280546001600160a01b0319166001600160a01b0383161790556040517f141131bc079b7ca93af08d8d002e7b5c05980b35119d25bcfbf50a474d8e4f7f906109e4908390614b25565b60008061ffff8416151580610dd2575061ffff831615155b610dee5760405162461bcd60e51b815260040161079c90615390565b336000908152600c602052604090206003015461ffff16610e375760405162461bcd60e51b815260206004820152600360248201526222a91960e91b604482015260640161079c565b61ffff841615610e6357336000908152600c60205260409020600301805461ffff191661ffff86161790555b61ffff831615610e9657336000908152600c60205260409020600301805463ffff000019166201000061ffff8616021790555b6040805133815261ffff868116602083015285168183015290517f7d07d6e6f7e20d3e822b52403568ff69d07e849c5fb471a7f31801d722b5ade79181900360600190a15050336000908152600c602052604090206003015461ffff80821691620100009004169250929050565b600080546001600160a01b03163314610f2f5760405162461bcd60e51b815260040161079c9061535b565b6001600160a01b0386166000908152600c602052604090206003015461ffff1615610f6c5760405162461bcd60e51b815260040161079c906153df565b60008361ffff16118015610f84575060008261ffff16115b610fa05760405162461bcd60e51b815260040161079c90615390565b600b8054906000610fb08361544f565b90915550506040805160a0810182528681526020808201879052600b548284015261ffff8087166060840152851660808301526001600160a01b0389166000908152600c825292909220815180519293919261100f9284920190614820565b5060208281015180516110289260018501920190614820565b50604082810151600283015560608301516003909201805460809094015161ffff908116620100000263ffffffff19909516931692909217929092179055600754600b54915163169a7b1960e11b81526001600160a01b0390911691632d34f6329161109b9188918b91906004016154a0565b600060405180830381600087803b1580156110b557600080fd5b505af11580156110c9573d6000803e3d6000fd5b505050507ff7ab3642f3af1eb7a3d99172b39d3b81500f0d2e8ca42817bf14e6f588c3a5dd86600b5487878787604051611108969594939291906154ce565b60405180910390a150600b5495945050505050565b6000818152601760205260408120600501546111645760405162461bcd60e51b815260040161079c906020808252600490820152634552313160e01b604082015260600190565b6000828152601760209081526040808320600581015490546001600160a01b03168452600c90925282206003015461ffff916111a1918316615529565b6111ae90620f4240615529565b6111b89190615548565b905060006111c6848361363d565b9050801561126557600754600085815260176020818152604080842080546001600160a01b039081168652600c845282862060020154958b9052939092526003909101549051630107289f60e41b81529382169363107289f0936112329390921690869060040161556a565b600060405180830381600087803b15801561124c57600080fd5b505af1158015611260573d6000803e3d6000fd5b505050505b60008481526017602090815260408083206005019290925581518681529081018490529081018290527f97a628715758aec012fad464591d7f79e0aa8c976b33fd58fd8f4c2dd1c585039060600160405180910390a15092915050565b336000908152600a602052604081206001015481126112f35760405162461bcd60e51b815260040161079c90615390565b336000908152600a602052604090206001015482111561132357336000908152600a602052604090206001015491505b336000908152600a602052604081206001018054849290611345908490615589565b90915550506006546040516323b872dd60e01b81526001600160a01b03909116906323b872dd9061137e903090339087906004016155c8565b602060405180830381600087803b15801561139857600080fd5b505af11580156113ac573d6000803e3d6000fd5b505050506040513d601f19601f820116820180604052508101906113d091906155ec565b5090919050565b6000818152601a60205260409020546001600160a01b0316331461140d5760405162461bcd60e51b815260040161079c90615609565b6000818152601a602052604090206008015415801561143b57506000818152601a6020526040902060070154155b801561145857506000818152601a60205260409020600901544210155b6114745760405162461bcd60e51b815260040161079c90615626565b6000818152601a602052604090206004015460ff16156114a65760405162461bcd60e51b815260040161079c90615270565b6000818152601a60208181526040808420600280820154865260178452828620546001600160a01b039081168752600c8552838720909101546007549688905294909352600501549051630107289f60e41b815292939091169163107289f091611516918591339160040161556a565b600060405180830381600087803b15801561153057600080fd5b505af1158015611544573d6000803e3d6000fd5b505050507fd30d71c48064110dd4ba58760f48b5cbcc60e64452b205ecdd43572bca55cc318260405161157991815260200190565b60405180910390a15050565b6000546001600160a01b031633146115af5760405162461bcd60e51b815260040161079c9061535b565b6001600160a01b0381166115d55760405162461bcd60e51b815260040161079c90615390565b600d80546001600160a01b0319166001600160a01b0383161790556040517fc86d00792bf1e12e88a44ba4e23ce500127de980a86aafa6a8b5b964325f92e3906109e4908390614b25565b3360009081526001602081905260409091205460ff1615151461164257600080fd5b610944838383613883565b6000828152600e60209081526040808320548352601a909152902060080154156116895760405162461bcd60e51b815260040161079c9061564d565b611694336000613896565b601254336000908152600a60205260409081902080546001919091015491516309435fb560e21b81526001600160a01b039093169263250d7ed4926116e59291600401918252602082015260400190565b60206040518083038186803b1580156116fd57600080fd5b505afa158015611711573d6000803e3d6000fd5b505050506040513d601f19601f8201168201806040525081019061173591906155ec565b6117515760405162461bcd60e51b815260040161079c90615609565b61175c82823361390d565b600080600080600061176d87611897565b6011546014546040516309fff33560e31b8152600481018890526024810187905260448101869052606481018590526084810184905260a4810191909152959a50939850919650945092506000916001600160a01b0390911690634fff99a89060c40160206040518083038186803b1580156117e857600080fd5b505afa1580156117fc573d6000803e3d6000fd5b505050506040513d601f19601f82011682018060405250810190611820919061566a565b905060ff81161580159061184657506000888152600e602052604090206001015460ff16155b1561188d576118558882613ad8565b61185f8882613b31565b8060ff166001141561188d576000888152600e60209081526040808320548352601a90915290206008018890555b5050505050505050565b6000818152600e6020908152604080832054808452601a909252822060070154829182918291829182805b8281101561192f576000848152601a602052604081206007018054839081106118ed576118ed6153ad565b6000918252602080832090910154808352600e9091526040909120600301549091506119199084615687565b92505080806119279061544f565b9150506118c2565b506000988952600e602052604090982060038101546004820154600290920154929a909991985090965090945092505050565b60008060005b8351811015611ac957336000908152600a602090815260408083206001600160a01b03891684526002019091528120855182908790859081106119ad576119ad6153ad565b60200260200101518152602001908152602001600020541180156119f757506014548482815181106119e1576119e16153ad565b60200260200101516119f39190615687565b4210155b15611ab757336000908152600a602090815260408083206001600160a01b038916845260020190915281208551909190869084908110611a3957611a396153ad565b602002602001015181526020019081526020016000205482611a5b9190615687565b336000908152600a602090815260408083206001600160a01b038a1684526002019091528120865192945090918290879085908110611a9c57611a9c6153ad565b60200260200101518152602001908152602001600020819055505b80611ac18161544f565b915050611968565b508015611ccd5760045415611bb757600061271060045483611aeb9190615529565b611af59190615548565b9050611b018183615412565b91506001600160a01b03851615611b8f576007546001600160a01b038681166000908152600c602052604090819020600201549051630107289f60e41b8152919092169163107289f091611b5c91903090869060040161556a565b600060405180830381600087803b158015611b7657600080fd5b505af1158015611b8a573d6000803e3d6000fd5b505050505b6001600160a01b0385166000908152600c6020526040902060020154611bb590826140c7565b505b6001600160a01b03841615611c47576007546001600160a01b038581166000908152600c602052604090819020600201549051630107289f60e41b8152919092169163107289f091611c1091903390869060040161556a565b600060405180830381600087803b158015611c2a57600080fd5b505af1158015611c3e573d6000803e3d6000fd5b50505050611ccd565b60065460405163a9059cbb60e01b81526001600160a01b039091169063a9059cbb90611c79903390859060040161569f565b602060405180830381600087803b158015611c9357600080fd5b505af1158015611ca7573d6000803e3d6000fd5b505050506040513d601f19601f82011682018060405250810190611ccb91906155ec565b505b7f48462eddab712eed4d61f328a488b0145debaa43da5efde2468413e9c5393cf733858584604051611d0294939291906156e8565b60405180910390a19392505050565b3360009081526001602081905260409091205460ff16151514611d3357600080fd5b6109448383836140ee565b601560205260009081526040902080546001820180546001600160a01b039092169291611d6a90615725565b80601f0160208091040260200160405190810160405280929190818152602001828054611d9690615725565b8015611de35780601f10611db857610100808354040283529160200191611de3565b820191906000526020600020905b815481529060010190602001808311611dc657829003601f168201915b5050505050905082565b6000546001600160a01b03163314611e175760405162461bcd60e51b815260040161079c9061535b565b60005b8251811015611e7e578160016000858481518110611e3a57611e3a6153ad565b6020908102919091018101516001600160a01b03168252810191909152604001600020805460ff191691151591909117905580611e768161544f565b915050611e1a565b5080151582604051611e909190615760565b604051908190038120907f6fe7cd0563aebb5e4e99409417b943dcd23e200b600962ac773009db204233c290600090a35050565b606060098261ffff1681548110611edd57611edd6153ad565b906000526020600020018054611ef290615725565b80601f0160208091040260200160405190810160405280929190818152602001828054611f1e90615725565b8015611f6b5780601f10611f4057610100808354040283529160200191611f6b565b820191906000526020600020905b815481529060010190602001808311611f4e57829003601f168201915b50505050509050919050565b6000611f84336000613896565b601254336000908152600a60205260409081902080546001919091015491516309435fb560e21b81526001600160a01b039093169263250d7ed492611fd59291600401918252602082015260400190565b60206040518083038186803b158015611fed57600080fd5b505afa158015612001573d6000803e3d6000fd5b505050506040513d601f19601f8201168201806040525081019061202591906155ec565b6120415760405162461bcd60e51b815260040161079c90615609565b4283116120605760405162461bcd60e51b815260040161079c90615390565b60ff86166000908152601560205260409020546001600160a01b03166120985760405162461bcd60e51b815260040161079c90615270565b601980549060006120a88361544f565b90915550506001600160a01b0388166121b75760ff8616156120f25760405162461bcd60e51b815260206004820152600360248201526245523760e81b604482015260640161079c565b600082511161212b5760405162461bcd60e51b81526020600482015260056024820152644552312d3760d81b604482015260640161079c565b6006546040516323b872dd60e01b81526001600160a01b03909116906323b872dd9061215f90339030908a906004016155c8565b602060405180830381600087803b15801561217957600080fd5b505af115801561218d573d6000803e3d6000fd5b505050506040513d601f19601f820116820180604052508101906121b191906155ec565b50612320565b6000878152601760205260409020600301546001600160a01b031633146121f05760405162461bcd60e51b815260040161079c90615609565b60005b60008881526017602052604090206006015481101561228b57600088815260176020526040812060060180548390811061222f5761222f6153ad565b6000918252602080832090910154808352601a90915260409091206006015490915061ffff90811690871614156122785760405162461bcd60e51b815260040161079c906153df565b50806122838161544f565b9150506121f3565b50600087815260176020908152604080832060060180548251818502810185019093528083526122f5938301828280156122e457602002820191906000526020600020905b8154815260200190600101908083116122d0575b50505050508860ff1660195461413e565b6000898152601760209081526040909120825192935061231d926006909101918401906148a4565b50505b8560ff1660021480612333575060ff8616155b156123b35760ff861660009081526015602052604080822054601954915163bd80123160e01b81526001600160a01b039091169263bd80123192612380929091908a90829060040161579f565b600060405180830381600087803b15801561239a57600080fd5b505af11580156123ae573d6000803e3d6000fd5b505050505b601980546000908152601a602090815260408083208054336001600160a01b031991821617909155845484528184206002018c905584548452818420600401805460ff191660ff8d16179055845484528184206005018a905584548452818420600601805461ffff191661ffff8b16179055845484528184206009018890558454845281842060010180549091166001600160a01b038e1617905592548252919020835161246992600390920191850190614820565b50600754336000818152600a6020526040808220549051630107289f60e41b81526001600160a01b039094169363107289f0936124ab9392909160040161556a565b600060405180830381600087803b1580156124c557600080fd5b505af11580156124d9573d6000803e3d6000fd5b505050507f552e081116c21885e388accbf0275fbfb758238d1b04237fff749061d9a72424338989898989896019548a60405161251e999897969594939291906157be565b60405180910390a150601954979650505050505050565b601a6020526000908152604090208054600182015460028301546003840180546001600160a01b03948516959490931693919261257190615725565b80601f016020809104026020016040519081016040528092919081815260200182805461259d90615725565b80156125ea5780601f106125bf576101008083540402835291602001916125ea565b820191906000526020600020905b8154815290600101906020018083116125cd57829003601f168201915b5050506004840154600585015460068601546008870154600990970154959660ff9093169591945061ffff16925089565b6000546001600160a01b031633146126455760405162461bcd60e51b815260040161079c9061535b565b6001600160a01b03811661266b5760405162461bcd60e51b815260040161079c90615390565b600780546001600160a01b0319166001600160a01b0383161790556040517fb277bcb19384acdda5bb6f18f70aaeb940819c7a7b57499da45695d5c2091b0e906109e4908390614b25565b600c602052600090815260409020805481906126d190615725565b80601f01602080910402602001604051908101604052809291908181526020018280546126fd90615725565b801561274a5780601f1061271f5761010080835404028352916020019161274a565b820191906000526020600020905b81548152906001019060200180831161272d57829003601f168201915b50505050509080600101805461275f90615725565b80601f016020809104026020016040519081016040528092919081815260200182805461278b90615725565b80156127d85780601f106127ad576101008083540402835291602001916127d8565b820191906000526020600020905b8154815290600101906020018083116127bb57829003601f168201915b50505050600283015460039093015491929161ffff8082169250620100009091041685565b6000546001600160a01b031633146128275760405162461bcd60e51b815260040161079c9061535b565b6001600160a01b03811661284d5760405162461bcd60e51b815260040161079c90615390565b601380546001600160a01b0319166001600160a01b0383161790556040517f470ec44ead58d8875c956a389bdb710dcdc3cfcd1a601540691b30b5efcf7c77906109e4908390614b25565b6017602052600090815260409020805460018201546002830180546001600160a01b039093169391926128ca90615725565b80601f01602080910402602001604051908101604052809291908181526020018280546128f690615725565b80156129435780601f1061291857610100808354040283529160200191612943565b820191906000526020600020905b81548152906001019060200180831161292657829003601f168201915b505050506003830154600484015460059094015492936001600160a01b039091169290915086565b6000838152601a60205260409020546001600160a01b031633146129a15760405162461bcd60e51b815260040161079c90615609565b6000838152601a60205260409020600801541580156129cf57506000838152601a6020526040902060070154155b80156129ec57506000838152601a60205260409020600901544210155b612a085760405162461bcd60e51b815260040161079c90615626565b6000838152601a602052604090206004015460ff16612a395760405162461bcd60e51b815260040161079c90615270565b428111612a585760405162461bcd60e51b815260040161079c90615390565b6000838152601a60209081526040918290206009810184905560050184905581518581529081018490529081018290527f4def1aaccaac82e9103ef071fe31f5651a3e338b2ae037cfb7725c3eca9fb51690606001610d12565b6006546040516323b872dd60e01b81526001600160a01b03909116906323b872dd90612ae6903390309086906004016155c8565b602060405180830381600087803b158015612b0057600080fd5b505af1158015612b14573d6000803e3d6000fd5b505050506040513d601f19601f82011682018060405250810190612b3891906155ec565b506001600160a01b0382166000908152600a6020526040902054612b6d57612b5f81614305565b612b698282613896565b5050565b6001600160a01b0382166000908152600a602052604081206001018054839290612b98908490615826565b90915550612ba7905081614305565b7fbc09618bc77172ebc0e046c72f495cd682958c43dd15faff368975f18a3d5a0a8260008360405161157993929190615867565b8051825114612bfc5760405162461bcd60e51b815260040161079c90615390565b60005b8251811015612eba576000601a6000858481518110612c2057612c206153ad565b60200260200101518152602001908152602001600020600801541115612ea857600060176000601a6000878681518110612c5c57612c5c6153ad565b6020026020010151815260200190815260200160002060020154815260200190815260200160002060000160009054906101000a90046001600160a01b03169050806001600160a01b0316336001600160a01b031614612cce5760405162461bcd60e51b815260040161079c90615609565b601a6000858481518110612ce457612ce46153ad565b60209081029190910181015182528101919091526040016000206004015460ff1615801590612d4a5750601a6000858481518110612d2457612d246153ad565b60209081029190910181015182528101919091526040016000206004015460ff16600214155b612d665760405162461bcd60e51b815260040161079c90615390565b60156000601a6000878681518110612d8057612d806153ad565b602090810291909101810151825281810192909252604090810160009081206004015460ff16845291830193909352910190205484516001600160a01b039091169063bd80123190869085908110612dda57612dda6153ad565b6020026020010151858581518110612df457612df46153ad565b6020026020010151601a6000898881518110612e1257612e126153ad565b60209081029190910181015182528181019290925260409081016000908120600501546001600160a01b0389168252600c9093528190206003015490516001600160e01b031960e087901b168152612e749493929161ffff169060040161579f565b600060405180830381600087803b158015612e8e57600080fd5b505af1158015612ea2573d6000803e3d6000fd5b50505050505b80612eb28161544f565b915050612bff565b507f49de03a48f2d145bbebe50d32dffc47109f0846c23f21290c9f54a741aab7f0533838360405161157993929190615888565b6000546001600160a01b03163314612f185760405162461bcd60e51b815260040161079c9061535b565b6001600160a01b038116612f3e5760405162461bcd60e51b815260040161079c90615390565b601180546001600160a01b0319166001600160a01b0383161790556040517f1b4cbe91ecf2e88172c5623b0fbeb6f8eea92b0d825306a6237625dc2452259a906109e4908390614b25565b6000546001600160a01b03163314612fb35760405162461bcd60e51b815260040161079c9061535b565b6001600160a01b0381166130185760405162461bcd60e51b815260206004820152602660248201527f4f776e61626c653a206e6577206f776e657220697320746865207a65726f206160448201526564647265737360d01b606482015260840161079c565b6130218161431f565b50565b6000546001600160a01b0316331461304e5760405162461bcd60e51b815260040161079c9061535b565b6000811161306e5760405162461bcd60e51b815260040161079c90615390565b60148190556040518181527fddda2129649b8d3c13605fd431e58aa0af3eda0702c0a57e171a9ed90989d320906020016109e4565b80518251146130b4576130b46158c8565b60005b82518110156131e757601760008483815181106130d6576130d66153ad565b6020908102919091018101518252810191909152604001600020546001600160a01b031633146131185760405162461bcd60e51b815260040161079c90615609565b81818151811061312a5761312a6153ad565b602002602001015160176000858481518110613148576131486153ad565b6020026020010151815260200190815260200160002060040160008282546131709190615687565b92505081905550818181518110613189576131896153ad565b6020026020010151601760008584815181106131a7576131a76153ad565b6020026020010151815260200190815260200160002060050160008282546131cf9190615687565b909155508190506131df8161544f565b9150506130b7565b507f9c3aabf4229f3c7892abb038272114250e74a07e02539cb9114ef52ec2c1a48e6017600084600081518110613220576132206153ad565b60209081029190910181015182528101919091526040908101600020549051611579916001600160a01b03169085908590615888565b6000848152601a6020526040812060080154156132855760405162461bcd60e51b815260040161079c9061564d565b6000858152601a60205260409020600701546132cc576000858152601a60205260409020600901544211156132cc5760405162461bcd60e51b815260040161079c9061564d565b6000858152601a602052604090206006015461ffff8481169116146133195760405162461bcd60e51b815260206004820152600360248201526245523960e81b604482015260640161079c565b613324336000613896565b601254336000908152600a60205260409081902080546001919091015491516309435fb560e21b81526001600160a01b039093169263250d7ed4926133759291600401918252602082015260400190565b60206040518083038186803b15801561338d57600080fd5b505afa1580156133a1573d6000803e3d6000fd5b505050506040513d601f19601f820116820180604052508101906133c591906155ec565b6133e15760405162461bcd60e51b815260040161079c90615609565b60006133ec8661436f565b6013549091506001600160a01b0316156134b7576013546040516318e8f49560e11b81526001600160a01b03909116906331d1e92a9061343290869085906004016158de565b60206040518083038186803b15801561344a57600080fd5b505afa15801561345e573d6000803e3d6000fd5b505050506040513d601f19601f8201168201806040525081019061348291906155ec565b6134b75760405162461bcd60e51b815260040161079c906020808252600490820152630455231360e41b604082015260600190565b60006134c633888888886144cc565b6000888152601a602090815260408220600701805460018101825590835291200181905592505050949350505050565b60168054600091826135078361544f565b90915550506001600160a01b03851660009081526018602090815260408083208784529091529020541561354d5760405162461bcd60e51b815260040161079c906153df565b60168054600090815260176020908152604080832080546001600160a01b0319166001600160a01b038b16179055835483528083206001018890559254825291902084516135a392600290920191860190614820565b5060168054600090815260176020908152604080832060030180546001600160a01b0319166001600160a01b0388811691909117909155935493891683526018825280832088845290915290819020829055517f558f31dc5dee6a560ed9a994f922e339f40c7c310f47862194463a2c68908d6c916136299188918891889088906158f7565b60405180910390a150601654949350505050565b6000805b60008481526017602052604090206006015481101561387b57600084815260176020526040812060060180548390811061367d5761367d6153ad565b6000918252602080832090910154808352601a90915260409091206004015490915060ff16158015906136c057506000818152601a602052604090206008015415155b80156136cc5750600084115b1561386857600085815260176020908152604080832054848452601a80845282852060048082015460ff1687526015865284872054600d548989529390965260089091015493516331a9108f60e11b8152908101939093526001600160a01b039182169493821692631899ca5f9287928792911690636352211e9060240160206040518083038186803b15801561376257600080fd5b505afa158015613776573d6000803e3d6000fd5b505050506040513d601f19601f8201168201806040525081019061379a919061528d565b6001600160a01b0387166000908152600c602090815260408083206003908101548c8552601a8452828520600801548552600e90935292819020905160e088901b6001600160e01b0319168152613805969594938f9362010000900461ffff169201906004016152f3565b602060405180830381600087803b15801561381f57600080fd5b505af1158015613833573d6000803e3d6000fd5b505050506040513d601f19601f820116820180604052508101906138579190615342565b90506138638187615412565b955050505b50806138738161544f565b915050613641565b509092915050565b6109448361388f61457f565b8385614593565b6001600160a01b0382166000908152600a6020526040902054612b69576001600160a01b0382166000908152600a6020526040908190206103e8808255600190910183905590517f9355839b7b67fd6e2485ad85238a7449f6ded48cbe176bd3c463dd2b645ff1ba91611579918591908590615867565b6000838152600e602052604090206001015460ff161561393f5760405162461bcd60e51b815260040161079c9061564d565b6001600160a01b0381166000908152600f6020908152604080832086845290915290205460ff16156139835760405162461bcd60e51b815260040161079c9061593a565b60ff8216613a30576001600160a01b0381166000908152601060209081526040808320868452600e8352818420548452909152902054156139d65760405162461bcd60e51b815260040161079c9061593a565b6000838152600e602090815260408083206003810180546001810182559085528385200180546001600160a01b0319166001600160a01b038716908117909155845260108352818420905484529091529020839055613a6b565b6000838152600e602090815260408220600401805460018101825590835291200180546001600160a01b0319166001600160a01b0383161790555b6001600160a01b0381166000818152600f60209081526040808320878452825291829020805460ff1916600117905581518681529081019290925260ff8416908201527f302c645d2268a36235b96cfc33f21f85d7dd6525b340b801899e8b8d7846c44390606001610d12565b6000828152600e60205260409081902060018101805460ff191660ff85161790554260028201555490517fbdee5e861830ed1c224df6174df0128922d6b8e4dd09ae2afe2aaf53e32db0da916115799185918591614c8a565b60125460408051630d9f6b9160e11b815290516001926000926001600160a01b0390911691631b3ed72291600480820192602092909190829003018186803b158015613b7c57600080fd5b505afa158015613b90573d6000803e3d6000fd5b505050506040513d601f19601f82011682018060405250810190613bb4919061566a565b90508260ff1660021415613bc85760001991505b601254600d546040516331a9108f60e11b81526004810187905260009283926001600160a01b0391821692630b9c8dce92600a928692911690636352211e9060240160206040518083038186803b158015613c2257600080fd5b505afa158015613c36573d6000803e3d6000fd5b505050506040513d601f19601f82011682018060405250810190613c5a919061528d565b6001600160a01b03168152602081019190915260409081016000205490516001600160e01b031960e084901b168152600481019190915260ff88166024820152604401604080518083038186803b158015613cb457600080fd5b505afa158015613cc8573d6000803e3d6000fd5b505050506040513d601f19601f82011682018060405250810190613cec9190615957565b600d546040516331a9108f60e11b8152600481018a9052929450909250613dc7916001600160a01b0390911690636352211e9060240160206040518083038186803b158015613d3a57600080fd5b505afa158015613d4e573d6000803e3d6000fd5b505050506040513d601f19601f82011682018060405250810190613d72919061528d565b600086900b6064613d8660ff881687615529565b613d909190615548565b613d9a919061597b565b600087900b6064613dae60ff891687615529565b613db89190615548565b613dc2919061597b565b61468a565b505060005b6000858152600e6020526040902060030154811015613f38576012546000868152600e602052604081206003018054919283926001600160a01b0390911691630b9c8dce91600a91859188908110613e2657613e266153ad565b6000918252602080832091909101546001600160a01b03168352820192909252604090810190912054905160e083901b6001600160e01b0319168152600481019190915260ff89166024820152604401604080518083038186803b158015613e8d57600080fd5b505afa158015613ea1573d6000803e3d6000fd5b505050506040513d601f19601f82011682018060405250810190613ec59190615957565b91509150613f23600e60008981526020019081526020016000206003018481548110613ef357613ef36153ad565b60009182526020822001546001600160a01b031690613f159088900b8561597b565b613dc2600089900b8561597b565b50508080613f309061544f565b915050613dcc565b5060005b6000858152600e60205260409020600401548110156140c0576012546000868152600e602052604081206004018054919283926001600160a01b0390911691630b9c8dce91600a91859188908110613f9657613f966153ad565b6000918252602080832091909101546001600160a01b03168352820192909252604090810190912054905160e083901b6001600160e01b0319168152600481019190915260ff89166024820152604401604080518083038186803b158015613ffd57600080fd5b505afa158015614011573d6000803e3d6000fd5b505050506040513d601f19601f820116820180604052508101906140359190615957565b915091506140ab600e60008981526020019081526020016000206004018481548110614063576140636153ad565b60009182526020822001546001600160a01b0316906140859088900b8561597b565b6140919060001961597b565b61409f600089900b8561597b565b613dc29060001961597b565b505080806140b89061544f565b915050613f3c565b5050505050565b600082815260056020526040812080548392906140e5908490615687565b90915550505050565b60005b8251811015614138576141268461410661457f565b84868581518110614119576141196153ad565b6020026020010151614593565b806141308161544f565b9150506140f1565b50505050565b60606000845160016141509190615687565b6001600160401b038111156141675761416761493e565b604051908082528060200260200182016040528015614190578160200160208202803683370190505b5090508051600114156141c35782816000815181106141b1576141b16153ad565b60209081029190910101529050610bcd565b6000600186516141d39190615412565b90505b801561423057601a60008783815181106141f2576141f26153ad565b60209081029190910181015182528101919091526040016000206004015460ff16851061421e57614230565b8061422881615a00565b9150506141d6565b60005b82518110156142fa5781811161428057868181518110614255576142556153ad565b602002602001015183828151811061426f5761426f6153ad565b6020026020010181815250506142e8565b61428b826001615687565b8114156142a5578483828151811061426f5761426f6153ad565b866142b1600183615412565b815181106142c1576142c16153ad565b60200260200101518382815181106142db576142db6153ad565b6020026020010181815250505b806142f28161544f565b915050614233565b509095945050505050565b801561302157806002546143199190615826565b60025550565b600080546001600160a01b038381166001600160a01b0319831681178455604051919092169283917f8be0079c531659141344cd1fd0a4f28419497f9722a3daafe3b4186f6b6457e09190a35050565b6000818152601a6020526040812060070154606091906001600160401b0381111561439c5761439c61493e565b6040519080825280602002602001820160405280156143c5578160200160208202803683370190505b50905060005b6000848152601a60205260409020600701548110156144c557600d546000858152601a6020526040902060070180546001600160a01b039092169163d6f323c691908490811061441d5761441d6153ad565b90600052602060002001546040518263ffffffff1660e01b815260040161444691815260200190565b60206040518083038186803b15801561445e57600080fd5b505afa158015614472573d6000803e3d6000fd5b505050506040513d601f19601f820116820180604052508101906144969190615342565b8282815181106144a8576144a86153ad565b6020908102919091010152806144bd8161544f565b9150506143cb565b5092915050565b600d54604051636a18f8ef60e01b815260009182916001600160a01b0390911690636a18f8ef90614509908a908a908a908a908a90600401615a17565b602060405180830381600087803b15801561452357600080fd5b505af1158015614537573d6000803e3d6000fd5b505050506040513d601f19601f8201168201806040525081019061455b9190615342565b6000818152600e602052604090208781554260029091015591505095945050505050565b600061458e6201518042615548565b905090565b6001600160a01b0381166000908152600a60205260409020546145c85760405162461bcd60e51b815260040161079c906153df565b6001600160a01b038082166000908152600a60209081526040808320938816835260029093018152828220868352905220546146048382615826565b6001600160a01b038381166000818152600a60209081526040808320948b16808452600290950182528083208a845282529182902094909455805191825292810191909152908101859052606081018490527f7a3b7621e1e2606fa77559253d4ea69786f77a1f71df1c5728f593f17b0b291b9060800160405180910390a15050505050565b6001600160a01b0383166000908152600a60205260409020546146ae908390615826565b6001600160a01b0384166000908152600a6020526040812091909155811215614722576001600160a01b0383166000908152600a60205260409020600101546146f8908290615826565b6001600160a01b0384166000908152600a602052604090206001015561471d816147f4565b614787565b600654604051634d24848760e11b81526001600160a01b0390911690639a49090e90614754908690859060040161569f565b600060405180830381600087803b15801561476e57600080fd5b505af1158015614782573d6000803e3d6000fd5b505050505b6001600160a01b0383166000908152600a60205260409020546147c1576001600160a01b0383166000908152600a60205260409020600190555b7fbc09618bc77172ebc0e046c72f495cd682958c43dd15faff368975f18a3d5a0a838383604051610d1293929190615867565b80600360008282546148069190615687565b90915550613021905061481b8260001961597b565b614305565b82805461482c90615725565b90600052602060002090601f01602090048101928261484e5760008555614894565b82601f1061486757805160ff1916838001178555614894565b82800160010185558215614894579182015b82811115614894578251825591602001919060010190614879565b506148a09291506148de565b5090565b8280548282559060005260206000209081019282156148945791602002820182811115614894578251825591602001919060010190614879565b5b808211156148a057600081556001016148df565b60006020828403121561490557600080fd5b5035919050565b6001600160a01b038116811461302157600080fd5b60006020828403121561493357600080fd5b8135610bcd8161490c565b634e487b7160e01b600052604160045260246000fd5b604051601f8201601f191681016001600160401b038111828210171561497c5761497c61493e565b604052919050565b60006001600160401b0382111561499d5761499d61493e565b5060051b60200190565b600082601f8301126149b857600080fd5b81356001600160401b038111156149d1576149d161493e565b6149e4601f8201601f1916602001614954565b8181528460208386010111156149f957600080fd5b816020850160208301376000918101602001919091529392505050565b60006020808385031215614a2957600080fd5b82356001600160401b0380821115614a4057600080fd5b818501915085601f830112614a5457600080fd5b8135614a67614a6282614984565b614954565b81815260059190911b83018401908481019088831115614a8657600080fd5b8585015b83811015614abe57803585811115614aa25760008081fd5b614ab08b89838a01016149a7565b845250918601918601614a8a565b5098975050505050505050565b600080600060608486031215614ae057600080fd5b8335925060208401356001600160401b03811115614afd57600080fd5b614b09868287016149a7565b9250506040840135614b1a8161490c565b809150509250925092565b6001600160a01b0391909116815260200190565b60ff8116811461302157600080fd5b600080600060608486031215614b5d57600080fd5b8335614b6881614b39565b92506020840135614b788161490c565b915060408401356001600160401b03811115614b9357600080fd5b614b9f868287016149a7565b9150509250925092565b803561ffff81168114614bbb57600080fd5b919050565b60008060408385031215614bd357600080fd5b614bdc83614ba9565b9150614bea60208401614ba9565b90509250929050565b600080600080600060a08688031215614c0b57600080fd5b8535614c168161490c565b945060208601356001600160401b0380821115614c3257600080fd5b614c3e89838a016149a7565b95506040880135915080821115614c5457600080fd5b50614c61888289016149a7565b935050614c7060608701614ba9565b9150614c7e60808701614ba9565b90509295509295909350565b92835260ff919091166020830152604082015260600190565b600080600060608486031215614cb857600080fd5b8335614cc38161490c565b92506020840135614cd38161490c565b929592945050506040919091013590565b60008060408385031215614cf757600080fd5b823591506020830135614d0981614b39565b809150509250929050565b600082601f830112614d2557600080fd5b81356020614d35614a6283614984565b82815260059290921b84018101918181019086841115614d5457600080fd5b8286015b84811015614d6f5780358352918301918301614d58565b509695505050505050565b60008060408385031215614d8d57600080fd5b8235614d988161490c565b915060208301356001600160401b03811115614db357600080fd5b614dbf85828601614d14565b9150509250929050565b600060208284031215614ddb57600080fd5b81356001600160401b03811115614df157600080fd5b614dfd848285016149a7565b949350505050565b600082601f830112614e1657600080fd5b81356020614e26614a6283614984565b82815260059290921b84018101918181019086841115614e4557600080fd5b8286015b84811015614d6f578035614e5c8161490c565b8352918301918301614e49565b600080600060608486031215614e7e57600080fd5b8335614e898161490c565b925060208401356001600160401b03811115614ea457600080fd5b614eb086828701614e05565b925050604084013590509250925092565b600060208284031215614ed357600080fd5b8135610bcd81614b39565b60005b83811015614ef9578181015183820152602001614ee1565b838111156141385750506000910152565b60008151808452614f22816020860160208601614ede565b601f01601f19169290920160200192915050565b6001600160a01b0383168152604060208201819052600090614dfd90830184614f0a565b801515811461302157600080fd5b60008060408385031215614f7b57600080fd5b82356001600160401b03811115614f9157600080fd5b614f9d85828601614e05565b9250506020830135614d0981614f5a565b600060208284031215614fc057600080fd5b610bcd82614ba9565b602081526000610bcd6020830184614f0a565b600080600080600080600060e0888a031215614ff757600080fd5b87356150028161490c565b965060208801359550604088013561501981614b39565b94506060880135935061502e60808901614ba9565b925060a0880135915060c08801356001600160401b0381111561505057600080fd5b61505c8a828b016149a7565b91505092959891949750929550565b6001600160a01b038a8116825289166020820152604081018890526101206060820181905260009061509f8382018a614f0a565b60ff989098166080840152505060a081019490945261ffff9290921660c084015260e083015261010090910152949350505050565b60a0815260006150e760a0830188614f0a565b82810360208401526150f98188614f0a565b6040840196909652505061ffff9283166060820152911660809091015292915050565b600060018060a01b03808916835287602084015260c0604084015261514460c0840188614f0a565b9516606083015250608081019290925260a0909101529392505050565b60008060006060848603121561517657600080fd5b505081359360208301359350604090920135919050565b600080604083850312156151a057600080fd5b82356151ab8161490c565b946020939093013593505050565b600080604083850312156151cc57600080fd5b82356001600160401b03808211156151e357600080fd5b6151ef86838701614d14565b9350602085013591508082111561520557600080fd5b50614dbf85828601614d14565b6000806000806080858703121561522857600080fd5b8435935060208501356001600160401b0381111561524557600080fd5b615251878288016149a7565b93505061526060408601614ba9565b9396929550929360600135925050565b60208082526003908201526222a91b60e91b604082015260600190565b60006020828403121561529f57600080fd5b8151610bcd8161490c565b6000815480845260208085019450836000528060002060005b838110156152e85781546001600160a01b0316875295820195600191820191016152c3565b509495945050505050565b8681526001600160a01b038681166020830152851660408201526060810184905261ffff8316608082015260c060a08201819052600090615336908301846152aa565b98975050505050505050565b60006020828403121561535457600080fd5b5051919050565b6020808252818101527f4f776e61626c653a2063616c6c6572206973206e6f7420746865206f776e6572604082015260600190565b60208082526003908201526245523160e81b604082015260600190565b634e487b7160e01b600052603260045260246000fd5b600082516153d5818460208701614ede565b9190910192915050565b60208082526003908201526204552360ec1b604082015260600190565b634e487b7160e01b600052601160045260246000fd5b600082821015615424576154246153fc565b500390565b60408152600061543c6040830185614f0a565b905061ffff831660208301529392505050565b6000600019821415615463576154636153fc565b5060010190565b60ff841681526001600160a01b038316602082015260606040820181905260009061549790830184614f0a565b95945050505050565b6060815260006154b36060830186614f0a565b6001600160a01b039490941660208301525060400152919050565b60018060a01b038716815285602082015260c0604082015260006154f560c0830187614f0a565b82810360608401526155078187614f0a565b91505061ffff808516608084015280841660a084015250979650505050505050565b6000816000190483118215151615615543576155436153fc565b500290565b60008261556557634e487b7160e01b600052601260045260246000fd5b500490565b9283526001600160a01b03919091166020830152604082015260600190565b60008083128015600160ff1b8501841216156155a7576155a76153fc565b6001600160ff1b03840183138116156155c2576155c26153fc565b50500390565b6001600160a01b039384168152919092166020820152604081019190915260600190565b6000602082840312156155fe57600080fd5b8151610bcd81614f5a565b60208082526003908201526245523560e81b604082015260600190565b6020808252600d908201526c10d85b9b9bdd0810d85b98d95b609a1b604082015260600190565b60208082526003908201526245523360e81b604082015260600190565b60006020828403121561567c57600080fd5b8151610bcd81614b39565b6000821982111561569a5761569a6153fc565b500190565b6001600160a01b03929092168252602082015260400190565b600081518084526020808501945080840160005b838110156152e8578151875295820195908201906001016156cc565b6001600160a01b03858116825284166020820152608060408201819052600090615714908301856156b8565b905082606083015295945050505050565b600181811c9082168061573957607f821691505b6020821081141561575a57634e487b7160e01b600052602260045260246000fd5b50919050565b815160009082906020808601845b838110156157935781516001600160a01b03168552938201939082019060010161576e565b50929695505050505050565b9384526020840192909252604083015261ffff16606082015260800190565b600061012060018060a01b03808d168452808c1660208501525089604084015260ff8916606084015287608084015261ffff871660a08401528560c08401528460e08401528061010084015261581681840185614f0a565b9c9b505050505050505050505050565b600080821280156001600160ff1b0384900385131615615848576158486153fc565b600160ff1b8390038412811615615861576158616153fc565b50500190565b6001600160a01b039390931683526020830191909152604082015260600190565b6001600160a01b03841681526060602082018190526000906158ac908301856156b8565b82810360408401526158be81856156b8565b9695505050505050565b634e487b7160e01b600052600160045260246000fd5b828152604060208201526000614dfd60408301846156b8565b600060018060a01b03808816835286602084015285604084015260a0606084015261592560a0840186614f0a565b91508084166080840152509695505050505050565b60208082526003908201526211548d60ea1b604082015260600190565b6000806040838503121561596a57600080fd5b505080516020909101519092909150565b60006001600160ff1b03818413828413808216868404861116156159a1576159a16153fc565b600160ff1b60008712828116878305891216156159c0576159c06153fc565b600087129250878205871284841616156159dc576159dc6153fc565b878505871281841616156159f2576159f26153fc565b505050929093029392505050565b600081615a0f57615a0f6153fc565b506000190190565b60018060a01b038616815284602082015260a060408201526000615a3e60a0830186614f0a565b61ffff9490941660608301525060800152939250505056fea2646970667358221220bad436e18b044e03e625328729a9a5434658e86a0825eae9191b78a8c3f99af464736f6c63430008090033",
  "linkReferences": {},
  "deployedLinkReferences": {}
}